{
  "contractName": "InvestmentPools",
  "abi": [
    {
      "inputs": [
        {
          "internalType": "address",
          "name": "_priceFeedAddress",
          "type": "address"
        }
      ],
      "stateMutability": "nonpayable",
      "type": "constructor"
    },
    {
      "anonymous": false,
      "inputs": [
        {
          "indexed": false,
          "internalType": "uint256",
          "name": "poolId",
          "type": "uint256"
        },
        {
          "indexed": false,
          "internalType": "address",
          "name": "investor",
          "type": "address"
        },
        {
          "indexed": false,
          "internalType": "uint256",
          "name": "amount",
          "type": "uint256"
        }
      ],
      "name": "FundsReturned",
      "type": "event"
    },
    {
      "anonymous": false,
      "inputs": [
        {
          "indexed": false,
          "internalType": "uint256",
          "name": "poolId",
          "type": "uint256"
        },
        {
          "indexed": false,
          "internalType": "address",
          "name": "investor",
          "type": "address"
        },
        {
          "indexed": false,
          "internalType": "uint256",
          "name": "amount",
          "type": "uint256"
        }
      ],
      "name": "InvestmentMade",
      "type": "event"
    },
    {
      "anonymous": false,
      "inputs": [
        {
          "indexed": false,
          "internalType": "uint256",
          "name": "poolId",
          "type": "uint256"
        }
      ],
      "name": "PoolClosed",
      "type": "event"
    },
    {
      "anonymous": false,
      "inputs": [
        {
          "indexed": false,
          "internalType": "uint256",
          "name": "poolId",
          "type": "uint256"
        },
        {
          "indexed": false,
          "internalType": "string",
          "name": "name",
          "type": "string"
        },
        {
          "indexed": false,
          "internalType": "uint256",
          "name": "goal",
          "type": "uint256"
        },
        {
          "indexed": false,
          "internalType": "uint256",
          "name": "deadline",
          "type": "uint256"
        }
      ],
      "name": "PoolCreated",
      "type": "event"
    },
    {
      "inputs": [],
      "name": "owner",
      "outputs": [
        {
          "internalType": "address",
          "name": "",
          "type": "address"
        }
      ],
      "stateMutability": "view",
      "type": "function"
    },
    {
      "inputs": [],
      "name": "poolCount",
      "outputs": [
        {
          "internalType": "uint256",
          "name": "",
          "type": "uint256"
        }
      ],
      "stateMutability": "view",
      "type": "function"
    },
    {
      "inputs": [
        {
          "internalType": "uint256",
          "name": "",
          "type": "uint256"
        }
      ],
      "name": "pools",
      "outputs": [
        {
          "internalType": "string",
          "name": "name",
          "type": "string"
        },
        {
          "internalType": "uint256",
          "name": "goal",
          "type": "uint256"
        },
        {
          "internalType": "uint256",
          "name": "totalInvested",
          "type": "uint256"
        },
        {
          "internalType": "uint256",
          "name": "deadline",
          "type": "uint256"
        },
        {
          "internalType": "uint256",
          "name": "tokenAmount",
          "type": "uint256"
        },
        {
          "internalType": "bool",
          "name": "isClosed",
          "type": "bool"
        }
      ],
      "stateMutability": "view",
      "type": "function"
    },
    {
      "inputs": [],
      "name": "getLatestETHPrice",
      "outputs": [
        {
          "internalType": "uint256",
          "name": "",
          "type": "uint256"
        }
      ],
      "stateMutability": "view",
      "type": "function"
    },
    {
      "inputs": [
        {
          "internalType": "string",
          "name": "_name",
          "type": "string"
        },
        {
          "internalType": "uint256",
          "name": "_goal",
          "type": "uint256"
        },
        {
          "internalType": "uint256",
          "name": "_durationInDays",
          "type": "uint256"
        },
        {
          "internalType": "uint256",
          "name": "_tokenAmount",
          "type": "uint256"
        }
      ],
      "name": "createPool",
      "outputs": [],
      "stateMutability": "nonpayable",
      "type": "function"
    },
    {
      "inputs": [
        {
          "internalType": "uint256",
          "name": "_poolId",
          "type": "uint256"
        }
      ],
      "name": "invest",
      "outputs": [],
      "stateMutability": "payable",
      "type": "function"
    },
    {
      "inputs": [
        {
          "internalType": "uint256",
          "name": "_poolId",
          "type": "uint256"
        }
      ],
      "name": "checkAndClosePool",
      "outputs": [],
      "stateMutability": "nonpayable",
      "type": "function"
    }
  ],
  "bytecode": "0x608060405234801561000f575f80fd5b5060405161368f38038061368f83398181016040528101906100319190610114565b805f806101000a81548173ffffffffffffffffffffffffffffffffffffffff021916908373ffffffffffffffffffffffffffffffffffffffff1602179055503360015f6101000a81548173ffffffffffffffffffffffffffffffffffffffff021916908373ffffffffffffffffffffffffffffffffffffffff1602179055505061013f565b5f80fd5b5f73ffffffffffffffffffffffffffffffffffffffff82169050919050565b5f6100e3826100ba565b9050919050565b6100f3816100d9565b81146100fd575f80fd5b50565b5f8151905061010e816100ea565b92915050565b5f60208284031215610129576101286100b6565b5b5f61013684828501610100565b91505092915050565b6135438061014c5f395ff3fe60806040526004361061006f575f3560e01c80638da5cb5b1161004d5780638da5cb5b146100e1578063a208298b1461010b578063ac4afa3814610133578063f525cb68146101745761006f565b80632afcf48014610073578063777e0d861461008f5780638715be94146100b9575b5f80fd5b61008d60048036038101906100889190610d85565b61019e565b005b34801561009a575f80fd5b506100a361048a565b6040516100b09190610dbf565b60405180910390f35b3480156100c4575f80fd5b506100df60048036038101906100da9190610d85565b610535565b005b3480156100ec575f80fd5b506100f5610650565b6040516101029190610e17565b60405180910390f35b348015610116575f80fd5b50610131600480360381019061012c9190610f6c565b610675565b005b34801561013e575f80fd5b5061015960048036038101906101549190610d85565b61083c565b60405161016b96959493929190611066565b60405180910390f35b34801561017f575f80fd5b50610188610906565b6040516101959190610dbf565b60405180910390f35b60035481106101e2576040517f08c379a00000000000000000000000000000000000000000000000000000000081526004016101d990611116565b60405180910390fd5b60025f8281526020019081526020015f206007015f9054906101000a900460ff1615610243576040517f08c379a000000000000000000000000000000000000000000000000000000000815260040161023a9061117e565b60405180910390fd5b60025f8281526020019081526020015f20600301544210610299576040517f08c379a0000000000000000000000000000000000000000000000000000000008152600401610290906111e6565b60405180910390fd5b5f34116102db576040517f08c379a00000000000000000000000000000000000000000000000000000000081526004016102d290611274565b60405180910390fd5b5f60025f8381526020019081526020015f2090505f6102f861048a565b90505f670de0b6b3a7640000823461031091906112bf565b61031a919061132d565b905034836002015f82825461032f919061135d565b925050819055505f836006015f3373ffffffffffffffffffffffffffffffffffffffff1673ffffffffffffffffffffffffffffffffffffffff1681526020019081526020015f2054036103df578260050133908060018154018082558091505060019003905f5260205f20015f9091909190916101000a81548173ffffffffffffffffffffffffffffffffffffffff021916908373ffffffffffffffffffffffffffffffffffffffff1602179055505b34836006015f3373ffffffffffffffffffffffffffffffffffffffff1673ffffffffffffffffffffffffffffffffffffffff1681526020019081526020015f205f82825461042d919061135d565b925050819055507f89728d542d77fad9fe42c7d1f032c2b85f64cf938d754183b0e95359fbfac8a184333460405161046793929190611390565b60405180910390a182600101548110610484576104838461090c565b5b50505050565b5f805f8054906101000a900473ffffffffffffffffffffffffffffffffffffffff1673ffffffffffffffffffffffffffffffffffffffff1663feaf968c6040518163ffffffff1660e01b815260040160a060405180830381865afa1580156104f4573d5f803e3d5ffd5b505050506040513d601f19601f82011682018060405250810190610518919061144b565b5050509150506402540be4008161052f91906114c2565b91505090565b6003548110610579576040517f08c379a000000000000000000000000000000000000000000000000000000000815260040161057090611116565b60405180910390fd5b5f60025f8381526020019081526020015f209050806007015f9054906101000a900460ff16156105de576040517f08c379a00000000000000000000000000000000000000000000000000000000081526004016105d59061117e565b60405180910390fd5b8060030154421015610625576040517f08c379a000000000000000000000000000000000000000000000000000000000815260040161061c90611582565b60405180910390fd5b80600101548160020154106106425761063d8261090c565b61064c565b61064b82610b58565b5b5050565b60015f9054906101000a900473ffffffffffffffffffffffffffffffffffffffff1681565b60015f9054906101000a900473ffffffffffffffffffffffffffffffffffffffff1673ffffffffffffffffffffffffffffffffffffffff163373ffffffffffffffffffffffffffffffffffffffff1614610704576040517f08c379a00000000000000000000000000000000000000000000000000000000081526004016106fb906115ea565b60405180910390fd5b5f8311801561071257505f82115b801561071d57505f81115b61075c576040517f08c379a000000000000000000000000000000000000000000000000000000000815260040161075390611652565b60405180910390fd5b5f60025f60035481526020019081526020015f20905084815f019081610782919061186a565b508381600101819055505f816002018190555062015180836107a491906112bf565b426107af919061135d565b81600301819055508181600401819055505f816007015f6101000a81548160ff0219169083151502179055507fd6a5afaab19aa08059d2a773896ae3716587b8cb7dd9ffa3989de36e7ce8d6a3600354868684600301546040516108169493929190611939565b60405180910390a160035f81548092919061083090611983565b91905055505050505050565b6002602052805f5260405f205f91509050805f01805461085b9061169d565b80601f01602080910402602001604051908101604052809291908181526020018280546108879061169d565b80156108d25780601f106108a9576101008083540402835291602001916108d2565b820191905f5260205f20905b8154815290600101906020018083116108b557829003601f168201915b505050505090806001015490806002015490806003015490806004015490806007015f9054906101000a900460ff16905086565b60035481565b5f60025f8381526020019081526020015f2090506001816007015f6101000a81548160ff0219169083151502179055505f815f016040516020016109509190611a9e565b60405160208183030381529060405290505f6040518060400160405280600381526020017f414254000000000000000000000000000000000000000000000000000000000081525090505f828285600401546040516109ae90610d34565b6109ba93929190611abf565b604051809103905ff0801580156109d3573d5f803e3d5ffd5b5090505f5b8460050180549050811015610b19575f8560050182815481106109fe576109fd611b02565b5b905f5260205f20015f9054906101000a900473ffffffffffffffffffffffffffffffffffffffff1690505f866006015f8373ffffffffffffffffffffffffffffffffffffffff1673ffffffffffffffffffffffffffffffffffffffff1681526020019081526020015f205490505f8760020154886004015483610a8191906112bf565b610a8b919061132d565b90508473ffffffffffffffffffffffffffffffffffffffff1663a9059cbb84836040518363ffffffff1660e01b8152600401610ac8929190611b2f565b6020604051808303815f875af1158015610ae4573d5f803e3d5ffd5b505050506040513d601f19601f82011682018060405250810190610b089190611b80565b5050505080806001019150506109d8565b507f925a19753e677c9dc36a80e0fc824ca0c5b1afde494872b43daccab9ffeaffd485604051610b499190610dbf565b60405180910390a15050505050565b5f60025f8381526020019081526020015f2090505f5b8160050180549050811015610cdc575f826005018281548110610b9457610b93611b02565b5b905f5260205f20015f9054906101000a900473ffffffffffffffffffffffffffffffffffffffff1690505f836006015f8373ffffffffffffffffffffffffffffffffffffffff1673ffffffffffffffffffffffffffffffffffffffff1681526020019081526020015f205490505f811115610ccd578173ffffffffffffffffffffffffffffffffffffffff166108fc8290811502906040515f60405180830381858888f19350505050158015610c4c573d5f803e3d5ffd5b505f846006015f8473ffffffffffffffffffffffffffffffffffffffff1673ffffffffffffffffffffffffffffffffffffffff1681526020019081526020015f20819055507f68f78b8ca5dadf1c8477d7aac04f14a21d77f8a1e702b86bdb9ff3e419a96471858383604051610cc493929190611390565b60405180910390a15b50508080600101915050610b6e565b506001816007015f6101000a81548160ff0219169083151502179055507f925a19753e677c9dc36a80e0fc824ca0c5b1afde494872b43daccab9ffeaffd482604051610d289190610dbf565b60405180910390a15050565b61196280611bac83390190565b5f604051905090565b5f80fd5b5f80fd5b5f819050919050565b610d6481610d52565b8114610d6e575f80fd5b50565b5f81359050610d7f81610d5b565b92915050565b5f60208284031215610d9a57610d99610d4a565b5b5f610da784828501610d71565b91505092915050565b610db981610d52565b82525050565b5f602082019050610dd25f830184610db0565b92915050565b5f73ffffffffffffffffffffffffffffffffffffffff82169050919050565b5f610e0182610dd8565b9050919050565b610e1181610df7565b82525050565b5f602082019050610e2a5f830184610e08565b92915050565b5f80fd5b5f80fd5b5f601f19601f8301169050919050565b7f4e487b71000000000000000000000000000000000000000000000000000000005f52604160045260245ffd5b610e7e82610e38565b810181811067ffffffffffffffff82111715610e9d57610e9c610e48565b5b80604052505050565b5f610eaf610d41565b9050610ebb8282610e75565b919050565b5f67ffffffffffffffff821115610eda57610ed9610e48565b5b610ee382610e38565b9050602081019050919050565b828183375f83830152505050565b5f610f10610f0b84610ec0565b610ea6565b905082815260208101848484011115610f2c57610f2b610e34565b5b610f37848285610ef0565b509392505050565b5f82601f830112610f5357610f52610e30565b5b8135610f63848260208601610efe565b91505092915050565b5f805f8060808587031215610f8457610f83610d4a565b5b5f85013567ffffffffffffffff811115610fa157610fa0610d4e565b5b610fad87828801610f3f565b9450506020610fbe87828801610d71565b9350506040610fcf87828801610d71565b9250506060610fe087828801610d71565b91505092959194509250565b5f81519050919050565b5f82825260208201905092915050565b8281835e5f83830152505050565b5f61101e82610fec565b6110288185610ff6565b9350611038818560208601611006565b61104181610e38565b840191505092915050565b5f8115159050919050565b6110608161104c565b82525050565b5f60c0820190508181035f83015261107e8189611014565b905061108d6020830188610db0565b61109a6040830187610db0565b6110a76060830186610db0565b6110b46080830185610db0565b6110c160a0830184611057565b979650505050505050565b7f506f6f6c206e6f7420666f756e640000000000000000000000000000000000005f82015250565b5f611100600e83610ff6565b915061110b826110cc565b602082019050919050565b5f6020820190508181035f83015261112d816110f4565b9050919050565b7f506f6f6c20636c6f7365640000000000000000000000000000000000000000005f82015250565b5f611168600b83610ff6565b915061117382611134565b602082019050919050565b5f6020820190508181035f8301526111958161115c565b9050919050565b7f506f6f6c206578706972656400000000000000000000000000000000000000005f82015250565b5f6111d0600c83610ff6565b91506111db8261119c565b602082019050919050565b5f6020820190508181035f8301526111fd816111c4565b9050919050565b7f496e766573746d656e74206d7573742062652067726561746572207468616e205f8201527f3000000000000000000000000000000000000000000000000000000000000000602082015250565b5f61125e602183610ff6565b915061126982611204565b604082019050919050565b5f6020820190508181035f83015261128b81611252565b9050919050565b7f4e487b71000000000000000000000000000000000000000000000000000000005f52601160045260245ffd5b5f6112c982610d52565b91506112d483610d52565b92508282026112e281610d52565b915082820484148315176112f9576112f8611292565b5b5092915050565b7f4e487b71000000000000000000000000000000000000000000000000000000005f52601260045260245ffd5b5f61133782610d52565b915061134283610d52565b92508261135257611351611300565b5b828204905092915050565b5f61136782610d52565b915061137283610d52565b925082820190508082111561138a57611389611292565b5b92915050565b5f6060820190506113a35f830186610db0565b6113b06020830185610e08565b6113bd6040830184610db0565b949350505050565b5f69ffffffffffffffffffff82169050919050565b6113e3816113c5565b81146113ed575f80fd5b50565b5f815190506113fe816113da565b92915050565b5f819050919050565b61141681611404565b8114611420575f80fd5b50565b5f815190506114318161140d565b92915050565b5f8151905061144581610d5b565b92915050565b5f805f805f60a0868803121561146457611463610d4a565b5b5f611471888289016113f0565b955050602061148288828901611423565b945050604061149388828901611437565b93505060606114a488828901611437565b92505060806114b5888289016113f0565b9150509295509295909350565b5f6114cc82611404565b91506114d783611404565b92508282026114e581611404565b91507f800000000000000000000000000000000000000000000000000000000000000084145f8412161561151c5761151b611292565b5b828205841483151761153157611530611292565b5b5092915050565b7f506f6f6c206e6f742065787069726564000000000000000000000000000000005f82015250565b5f61156c601083610ff6565b915061157782611538565b602082019050919050565b5f6020820190508181035f83015261159981611560565b9050919050565b7f4f6e6c79206f776e6572000000000000000000000000000000000000000000005f82015250565b5f6115d4600a83610ff6565b91506115df826115a0565b602082019050919050565b5f6020820190508181035f830152611601816115c8565b9050919050565b7f496e76616c696420696e707574000000000000000000000000000000000000005f82015250565b5f61163c600d83610ff6565b915061164782611608565b602082019050919050565b5f6020820190508181035f83015261166981611630565b9050919050565b7f4e487b71000000000000000000000000000000000000000000000000000000005f52602260045260245ffd5b5f60028204905060018216806116b457607f821691505b6020821081036116c7576116c6611670565b5b50919050565b5f819050815f5260205f209050919050565b5f6020601f8301049050919050565b5f82821b905092915050565b5f600883026117297fffffffffffffffffffffffffffffffffffffffffffffffffffffffffffffffff826116ee565b61173386836116ee565b95508019841693508086168417925050509392505050565b5f819050919050565b5f61176e61176961176484610d52565b61174b565b610d52565b9050919050565b5f819050919050565b61178783611754565b61179b61179382611775565b8484546116fa565b825550505050565b5f90565b6117af6117a3565b6117ba81848461177e565b505050565b5b818110156117dd576117d25f826117a7565b6001810190506117c0565b5050565b601f821115611822576117f3816116cd565b6117fc846116df565b8101602085101561180b578190505b61181f611817856116df565b8301826117bf565b50505b505050565b5f82821c905092915050565b5f6118425f1984600802611827565b1980831691505092915050565b5f61185a8383611833565b9150826002028217905092915050565b61187382610fec565b67ffffffffffffffff81111561188c5761188b610e48565b5b611896825461169d565b6118a18282856117e1565b5f60209050601f8311600181146118d2575f84156118c0578287015190505b6118ca858261184f565b865550611931565b601f1984166118e0866116cd565b5f5b82811015611907578489015182556001820191506020850194506020810190506118e2565b868310156119245784890151611920601f891682611833565b8355505b6001600288020188555050505b505050505050565b5f60808201905061194c5f830187610db0565b818103602083015261195e8186611014565b905061196d6040830185610db0565b61197a6060830184610db0565b95945050505050565b5f61198d82610d52565b91507fffffffffffffffffffffffffffffffffffffffffffffffffffffffffffffffff82036119bf576119be611292565b5b600182019050919050565b5f81905092915050565b5f81546119e08161169d565b6119ea81866119ca565b9450600182165f8114611a045760018114611a1957611a4b565b60ff1983168652811515820286019350611a4b565b611a22856116cd565b5f5b83811015611a4357815481890152600182019150602081019050611a24565b838801955050505b50505092915050565b7f5f546f6b656e00000000000000000000000000000000000000000000000000005f82015250565b5f611a886006836119ca565b9150611a9382611a54565b600682019050919050565b5f611aa982846119d4565b9150611ab482611a7c565b915081905092915050565b5f6060820190508181035f830152611ad78186611014565b90508181036020830152611aeb8185611014565b9050611afa6040830184610db0565b949350505050565b7f4e487b71000000000000000000000000000000000000000000000000000000005f52603260045260245ffd5b5f604082019050611b425f830185610e08565b611b4f6020830184610db0565b9392505050565b611b5f8161104c565b8114611b69575f80fd5b50565b5f81519050611b7a81611b56565b92915050565b5f60208284031215611b9557611b94610d4a565b5b5f611ba284828501611b6c565b9150509291505056fe608060405234801561000f575f80fd5b5060405161196238038061196283398181016040528101906100319190610351565b8282816003908161004291906105dd565b50806004908161005291906105dd565b505050610065338261006d60201b60201c565b5050506107ac565b5f73ffffffffffffffffffffffffffffffffffffffff168273ffffffffffffffffffffffffffffffffffffffff16036100db576040517f08c379a00000000000000000000000000000000000000000000000000000000081526004016100d290610706565b60405180910390fd5b6100ec5f83836101c760201b60201c565b8060025f8282546100fd9190610751565b92505081905550805f808473ffffffffffffffffffffffffffffffffffffffff1673ffffffffffffffffffffffffffffffffffffffff1681526020019081526020015f205f82825401925050819055508173ffffffffffffffffffffffffffffffffffffffff165f73ffffffffffffffffffffffffffffffffffffffff167fddf252ad1be2c89b69c2b068fc378daa952ba7f163c4a11628f55a4df523b3ef836040516101aa9190610793565b60405180910390a36101c35f83836101cc60201b60201c565b5050565b505050565b505050565b5f604051905090565b5f80fd5b5f80fd5b5f80fd5b5f80fd5b5f601f19601f8301169050919050565b7f4e487b71000000000000000000000000000000000000000000000000000000005f52604160045260245ffd5b610230826101ea565b810181811067ffffffffffffffff8211171561024f5761024e6101fa565b5b80604052505050565b5f6102616101d1565b905061026d8282610227565b919050565b5f67ffffffffffffffff82111561028c5761028b6101fa565b5b610295826101ea565b9050602081019050919050565b8281835e5f83830152505050565b5f6102c26102bd84610272565b610258565b9050828152602081018484840111156102de576102dd6101e6565b5b6102e98482856102a2565b509392505050565b5f82601f830112610305576103046101e2565b5b81516103158482602086016102b0565b91505092915050565b5f819050919050565b6103308161031e565b811461033a575f80fd5b50565b5f8151905061034b81610327565b92915050565b5f805f60608486031215610368576103676101da565b5b5f84015167ffffffffffffffff811115610385576103846101de565b5b610391868287016102f1565b935050602084015167ffffffffffffffff8111156103b2576103b16101de565b5b6103be868287016102f1565b92505060406103cf8682870161033d565b9150509250925092565b5f81519050919050565b7f4e487b71000000000000000000000000000000000000000000000000000000005f52602260045260245ffd5b5f600282049050600182168061042757607f821691505b60208210810361043a576104396103e3565b5b50919050565b5f819050815f5260205f209050919050565b5f6020601f8301049050919050565b5f82821b905092915050565b5f6008830261049c7fffffffffffffffffffffffffffffffffffffffffffffffffffffffffffffffff82610461565b6104a68683610461565b95508019841693508086168417925050509392505050565b5f819050919050565b5f6104e16104dc6104d78461031e565b6104be565b61031e565b9050919050565b5f819050919050565b6104fa836104c7565b61050e610506826104e8565b84845461046d565b825550505050565b5f90565b610522610516565b61052d8184846104f1565b505050565b5b81811015610550576105455f8261051a565b600181019050610533565b5050565b601f8211156105955761056681610440565b61056f84610452565b8101602085101561057e578190505b61059261058a85610452565b830182610532565b50505b505050565b5f82821c905092915050565b5f6105b55f198460080261059a565b1980831691505092915050565b5f6105cd83836105a6565b9150826002028217905092915050565b6105e6826103d9565b67ffffffffffffffff8111156105ff576105fe6101fa565b5b6106098254610410565b610614828285610554565b5f60209050601f831160018114610645575f8415610633578287015190505b61063d85826105c2565b8655506106a4565b601f19841661065386610440565b5f5b8281101561067a57848901518255600182019150602085019450602081019050610655565b868310156106975784890151610693601f8916826105a6565b8355505b6001600288020188555050505b505050505050565b5f82825260208201905092915050565b7f45524332303a206d696e7420746f20746865207a65726f2061646472657373005f82015250565b5f6106f0601f836106ac565b91506106fb826106bc565b602082019050919050565b5f6020820190508181035f83015261071d816106e4565b9050919050565b7f4e487b71000000000000000000000000000000000000000000000000000000005f52601160045260245ffd5b5f61075b8261031e565b91506107668361031e565b925082820190508082111561077e5761077d610724565b5b92915050565b61078d8161031e565b82525050565b5f6020820190506107a65f830184610784565b92915050565b6111a9806107b95f395ff3fe608060405234801561000f575f80fd5b50600436106100a7575f3560e01c8063395093511161006f578063395093511461016557806370a082311461019557806395d89b41146101c5578063a457c2d7146101e3578063a9059cbb14610213578063dd62ed3e14610243576100a7565b806306fdde03146100ab578063095ea7b3146100c957806318160ddd146100f957806323b872dd14610117578063313ce56714610147575b5f80fd5b6100b3610273565b6040516100c09190610ac3565b60405180910390f35b6100e360048036038101906100de9190610b74565b610303565b6040516100f09190610bcc565b60405180910390f35b610101610325565b60405161010e9190610bf4565b60405180910390f35b610131600480360381019061012c9190610c0d565b61032e565b60405161013e9190610bcc565b60405180910390f35b61014f61035c565b60405161015c9190610c78565b60405180910390f35b61017f600480360381019061017a9190610b74565b610364565b60405161018c9190610bcc565b60405180910390f35b6101af60048036038101906101aa9190610c91565b61039a565b6040516101bc9190610bf4565b60405180910390f35b6101cd6103df565b6040516101da9190610ac3565b60405180910390f35b6101fd60048036038101906101f89190610b74565b61046f565b60405161020a9190610bcc565b60405180910390f35b61022d60048036038101906102289190610b74565b6104e4565b60405161023a9190610bcc565b60405180910390f35b61025d60048036038101906102589190610cbc565b610506565b60405161026a9190610bf4565b60405180910390f35b60606003805461028290610d27565b80601f01602080910402602001604051908101604052809291908181526020018280546102ae90610d27565b80156102f95780601f106102d0576101008083540402835291602001916102f9565b820191905f5260205f20905b8154815290600101906020018083116102dc57829003601f168201915b5050505050905090565b5f8061030d610588565b905061031a81858561058f565b600191505092915050565b5f600254905090565b5f80610338610588565b9050610345858285610752565b6103508585856107dd565b60019150509392505050565b5f6012905090565b5f8061036e610588565b905061038f8185856103808589610506565b61038a9190610d84565b61058f565b600191505092915050565b5f805f8373ffffffffffffffffffffffffffffffffffffffff1673ffffffffffffffffffffffffffffffffffffffff1681526020019081526020015f20549050919050565b6060600480546103ee90610d27565b80601f016020809104026020016040519081016040528092919081815260200182805461041a90610d27565b80156104655780601f1061043c57610100808354040283529160200191610465565b820191905f5260205f20905b81548152906001019060200180831161044857829003601f168201915b5050505050905090565b5f80610479610588565b90505f6104868286610506565b9050838110156104cb576040517f08c379a00000000000000000000000000000000000000000000000000000000081526004016104c290610e27565b60405180910390fd5b6104d8828686840361058f565b60019250505092915050565b5f806104ee610588565b90506104fb8185856107dd565b600191505092915050565b5f60015f8473ffffffffffffffffffffffffffffffffffffffff1673ffffffffffffffffffffffffffffffffffffffff1681526020019081526020015f205f8373ffffffffffffffffffffffffffffffffffffffff1673ffffffffffffffffffffffffffffffffffffffff1681526020019081526020015f2054905092915050565b5f33905090565b5f73ffffffffffffffffffffffffffffffffffffffff168373ffffffffffffffffffffffffffffffffffffffff16036105fd576040517f08c379a00000000000000000000000000000000000000000000000000000000081526004016105f490610eb5565b60405180910390fd5b5f73ffffffffffffffffffffffffffffffffffffffff168273ffffffffffffffffffffffffffffffffffffffff160361066b576040517f08c379a000000000000000000000000000000000000000000000000000000000815260040161066290610f43565b60405180910390fd5b8060015f8573ffffffffffffffffffffffffffffffffffffffff1673ffffffffffffffffffffffffffffffffffffffff1681526020019081526020015f205f8473ffffffffffffffffffffffffffffffffffffffff1673ffffffffffffffffffffffffffffffffffffffff1681526020019081526020015f20819055508173ffffffffffffffffffffffffffffffffffffffff168373ffffffffffffffffffffffffffffffffffffffff167f8c5be1e5ebec7d5bd14f71427d1e84f3dd0314c0f7b2291e5b200ac8c7c3b925836040516107459190610bf4565b60405180910390a3505050565b5f61075d8484610506565b90507fffffffffffffffffffffffffffffffffffffffffffffffffffffffffffffffff81146107d757818110156107c9576040517f08c379a00000000000000000000000000000000000000000000000000000000081526004016107c090610fab565b60405180910390fd5b6107d6848484840361058f565b5b50505050565b5f73ffffffffffffffffffffffffffffffffffffffff168373ffffffffffffffffffffffffffffffffffffffff160361084b576040517f08c379a000000000000000000000000000000000000000000000000000000000815260040161084290611039565b60405180910390fd5b5f73ffffffffffffffffffffffffffffffffffffffff168273ffffffffffffffffffffffffffffffffffffffff16036108b9576040517f08c379a00000000000000000000000000000000000000000000000000000000081526004016108b0906110c7565b60405180910390fd5b6108c4838383610a49565b5f805f8573ffffffffffffffffffffffffffffffffffffffff1673ffffffffffffffffffffffffffffffffffffffff1681526020019081526020015f2054905081811015610947576040517f08c379a000000000000000000000000000000000000000000000000000000000815260040161093e90611155565b60405180910390fd5b8181035f808673ffffffffffffffffffffffffffffffffffffffff1673ffffffffffffffffffffffffffffffffffffffff1681526020019081526020015f2081905550815f808573ffffffffffffffffffffffffffffffffffffffff1673ffffffffffffffffffffffffffffffffffffffff1681526020019081526020015f205f82825401925050819055508273ffffffffffffffffffffffffffffffffffffffff168473ffffffffffffffffffffffffffffffffffffffff167fddf252ad1be2c89b69c2b068fc378daa952ba7f163c4a11628f55a4df523b3ef84604051610a309190610bf4565b60405180910390a3610a43848484610a4e565b50505050565b505050565b505050565b5f81519050919050565b5f82825260208201905092915050565b8281835e5f83830152505050565b5f601f19601f8301169050919050565b5f610a9582610a53565b610a9f8185610a5d565b9350610aaf818560208601610a6d565b610ab881610a7b565b840191505092915050565b5f6020820190508181035f830152610adb8184610a8b565b905092915050565b5f80fd5b5f73ffffffffffffffffffffffffffffffffffffffff82169050919050565b5f610b1082610ae7565b9050919050565b610b2081610b06565b8114610b2a575f80fd5b50565b5f81359050610b3b81610b17565b92915050565b5f819050919050565b610b5381610b41565b8114610b5d575f80fd5b50565b5f81359050610b6e81610b4a565b92915050565b5f8060408385031215610b8a57610b89610ae3565b5b5f610b9785828601610b2d565b9250506020610ba885828601610b60565b9150509250929050565b5f8115159050919050565b610bc681610bb2565b82525050565b5f602082019050610bdf5f830184610bbd565b92915050565b610bee81610b41565b82525050565b5f602082019050610c075f830184610be5565b92915050565b5f805f60608486031215610c2457610c23610ae3565b5b5f610c3186828701610b2d565b9350506020610c4286828701610b2d565b9250506040610c5386828701610b60565b9150509250925092565b5f60ff82169050919050565b610c7281610c5d565b82525050565b5f602082019050610c8b5f830184610c69565b92915050565b5f60208284031215610ca657610ca5610ae3565b5b5f610cb384828501610b2d565b91505092915050565b5f8060408385031215610cd257610cd1610ae3565b5b5f610cdf85828601610b2d565b9250506020610cf085828601610b2d565b9150509250929050565b7f4e487b71000000000000000000000000000000000000000000000000000000005f52602260045260245ffd5b5f6002820490506001821680610d3e57607f821691505b602082108103610d5157610d50610cfa565b5b50919050565b7f4e487b71000000000000000000000000000000000000000000000000000000005f52601160045260245ffd5b5f610d8e82610b41565b9150610d9983610b41565b9250828201905080821115610db157610db0610d57565b5b92915050565b7f45524332303a2064656372656173656420616c6c6f77616e63652062656c6f775f8201527f207a65726f000000000000000000000000000000000000000000000000000000602082015250565b5f610e11602583610a5d565b9150610e1c82610db7565b604082019050919050565b5f6020820190508181035f830152610e3e81610e05565b9050919050565b7f45524332303a20617070726f76652066726f6d20746865207a65726f206164645f8201527f7265737300000000000000000000000000000000000000000000000000000000602082015250565b5f610e9f602483610a5d565b9150610eaa82610e45565b604082019050919050565b5f6020820190508181035f830152610ecc81610e93565b9050919050565b7f45524332303a20617070726f766520746f20746865207a65726f2061646472655f8201527f7373000000000000000000000000000000000000000000000000000000000000602082015250565b5f610f2d602283610a5d565b9150610f3882610ed3565b604082019050919050565b5f6020820190508181035f830152610f5a81610f21565b9050919050565b7f45524332303a20696e73756666696369656e7420616c6c6f77616e63650000005f82015250565b5f610f95601d83610a5d565b9150610fa082610f61565b602082019050919050565b5f6020820190508181035f830152610fc281610f89565b9050919050565b7f45524332303a207472616e736665722066726f6d20746865207a65726f2061645f8201527f6472657373000000000000000000000000000000000000000000000000000000602082015250565b5f611023602583610a5d565b915061102e82610fc9565b604082019050919050565b5f6020820190508181035f83015261105081611017565b9050919050565b7f45524332303a207472616e7366657220746f20746865207a65726f20616464725f8201527f6573730000000000000000000000000000000000000000000000000000000000602082015250565b5f6110b1602383610a5d565b91506110bc82611057565b604082019050919050565b5f6020820190508181035f8301526110de816110a5565b9050919050565b7f45524332303a207472616e7366657220616d6f756e74206578636565647320625f8201527f616c616e63650000000000000000000000000000000000000000000000000000602082015250565b5f61113f602683610a5d565b915061114a826110e5565b604082019050919050565b5f6020820190508181035f83015261116c81611133565b905091905056fea2646970667358221220cb927604e28d0c85ac0cf8e91937d3e7cb7168654f7a53d3a423356f3816456264736f6c634300081a0033a264697066735822122047a0a4e6c2e9439c7aa92ac1bdf7a2b7c9ea9f3298bd1a8215001777ead13bc864736f6c634300081a0033",
  "immutableReferences": {},
  "source": "// SPDX-License-Identifier: MIT\r\npragma solidity ^0.8.26;\r\n\r\nimport \"@chainlink/contracts/src/v0.8/interfaces/AggregatorV3Interface.sol\";\r\nimport \"@openzeppelin/contracts/token/ERC20/ERC20.sol\";\r\n\r\ncontract InvestmentPools {\r\n    AggregatorV3Interface internal priceFeed;\r\n    address public owner;\r\n\r\n    constructor(address _priceFeedAddress) {\r\n        priceFeed = AggregatorV3Interface(_priceFeedAddress);\r\n        owner = msg.sender;\r\n    }\r\n\r\n    function getLatestETHPrice() public view returns (uint256) {\r\n        (\r\n            , int price, , , \r\n        ) = priceFeed.latestRoundData();\r\n        return uint256(price * 1e10); // Convert to 18 decimals\r\n    }\r\n\r\n    struct Pool {\r\n        string name;\r\n        uint256 goal;\r\n        uint256 totalInvested;\r\n        uint256 deadline;\r\n        uint256 tokenAmount;\r\n        address[] investors;\r\n        mapping(address => uint256) investments;\r\n        bool isClosed;\r\n    }\r\n\r\n    mapping(uint256 => Pool) public pools;\r\n    uint256 public poolCount;\r\n\r\n    event PoolCreated(uint256 poolId, string name, uint256 goal, uint256 deadline);\r\n    event InvestmentMade(uint256 poolId, address investor, uint256 amount);\r\n    event PoolClosed(uint256 poolId);\r\n    event FundsReturned(uint256 poolId, address investor, uint256 amount);\r\n\r\n    modifier onlyOwner() {\r\n        require(msg.sender == owner, \"Only owner\");\r\n        _;\r\n    }\r\n\r\n    function createPool(\r\n        string memory _name,\r\n        uint256 _goal,\r\n        uint256 _durationInDays,\r\n        uint256 _tokenAmount\r\n    ) public onlyOwner {\r\n        require(_goal > 0 && _durationInDays > 0 && _tokenAmount > 0, \"Invalid input\");\r\n\r\n        Pool storage newPool = pools[poolCount];\r\n        newPool.name = _name;\r\n        newPool.goal = _goal;\r\n        newPool.totalInvested = 0;\r\n        newPool.deadline = block.timestamp + (_durationInDays * 1 days);\r\n        newPool.tokenAmount = _tokenAmount;\r\n        newPool.isClosed = false;\r\n\r\n        emit PoolCreated(poolCount, _name, _goal, newPool.deadline);\r\n        poolCount++;\r\n    }\r\n\r\n    function invest(uint256 _poolId) public payable {\r\n        require(_poolId < poolCount, \"Pool not found\");\r\n        require(!pools[_poolId].isClosed, \"Pool closed\");\r\n        require(block.timestamp < pools[_poolId].deadline, \"Pool expired\");\r\n        require(msg.value > 0, \"Investment must be greater than 0\");\r\n\r\n        Pool storage pool = pools[_poolId];\r\n        \r\n        uint256 ethPrice = getLatestETHPrice();\r\n        uint256 investmentInUSD = (msg.value * ethPrice) / 1e18;\r\n\r\n        pool.totalInvested += msg.value;\r\n\r\n        if (pool.investments[msg.sender] == 0) {\r\n            pool.investors.push(msg.sender);\r\n        }\r\n\r\n        pool.investments[msg.sender] += msg.value;\r\n\r\n        emit InvestmentMade(_poolId, msg.sender, msg.value);\r\n\r\n        if (investmentInUSD >= pool.goal) {\r\n            _closePool(_poolId);\r\n        }\r\n    }\r\n\r\n    function checkAndClosePool(uint256 _poolId) public {\r\n        require(_poolId < poolCount, \"Pool not found\");\r\n        Pool storage pool = pools[_poolId];\r\n        require(!pool.isClosed, \"Pool closed\");\r\n        require(block.timestamp >= pool.deadline, \"Pool not expired\");\r\n\r\n        if (pool.totalInvested >= pool.goal) {\r\n            _closePool(_poolId);\r\n        } else {\r\n            _refundInvestors(_poolId);\r\n        }\r\n    }\r\n\r\n    function _closePool(uint256 _poolId) internal {\r\n        Pool storage pool = pools[_poolId];\r\n        pool.isClosed = true;\r\n\r\n        string memory tokenName = string(abi.encodePacked(pool.name, \"_Token\"));\r\n        string memory tokenSymbol = \"ABT\";\r\n\r\n        AgroBlockToken newToken = new AgroBlockToken(tokenName, tokenSymbol, pool.tokenAmount);\r\n\r\n        for (uint256 i = 0; i < pool.investors.length; i++) {\r\n            address investor = pool.investors[i];\r\n            uint256 investment = pool.investments[investor];\r\n            uint256 share = (investment * pool.tokenAmount) / pool.totalInvested;\r\n            newToken.transfer(investor, share);\r\n        }\r\n\r\n        emit PoolClosed(_poolId);\r\n    }\r\n\r\n    function _refundInvestors(uint256 _poolId) internal {\r\n        Pool storage pool = pools[_poolId];\r\n        for (uint256 i = 0; i < pool.investors.length; i++) {\r\n            address investor = pool.investors[i];\r\n            uint256 investment = pool.investments[investor];\r\n            if (investment > 0) {\r\n                payable(investor).transfer(investment);\r\n                pool.investments[investor] = 0;\r\n                emit FundsReturned(_poolId, investor, investment);\r\n            }\r\n        }\r\n        pool.isClosed = true;\r\n        emit PoolClosed(_poolId);\r\n    }\r\n}\r\n\r\ncontract AgroBlockToken is ERC20 {\r\n    constructor(\r\n        string memory name,\r\n        string memory symbol,\r\n        uint256 initialSupply\r\n    ) ERC20(name, symbol) {\r\n        _mint(msg.sender, initialSupply);\r\n    }\r\n}\r\n",
  "sourcePath": "C:\\Users\\nicol\\Documents\\Proyectos\\beca\\AGROBLOCK\\contracts\\InvestmentPools.sol",
  "compiler": {
    "name": "solc",
    "version": "0.8.26+commit.8a97fa7a.Emscripten.clang"
  },
  "schemaVersion": "3.4.16",
  "updatedAt": "2024-09-04T18:05:14.821Z",
  "devdoc": {
    "kind": "dev",
    "methods": {},
    "version": 1
  },
  "userdoc": {
    "kind": "user",
    "methods": {},
    "version": 1
  }
}