{
  "contractName": "LoteInversion",
  "abi": [
    {
      "inputs": [
        {
          "internalType": "address",
          "name": "_priceFeed",
          "type": "address"
        },
        {
          "internalType": "uint256",
          "name": "number",
          "type": "uint256"
        }
      ],
      "stateMutability": "nonpayable",
      "type": "constructor"
    },
    {
      "anonymous": false,
      "inputs": [
        {
          "indexed": true,
          "internalType": "uint256",
          "name": "loteId",
          "type": "uint256"
        },
        {
          "indexed": false,
          "internalType": "uint256",
          "name": "montoTotal",
          "type": "uint256"
        }
      ],
      "name": "GananciasDistribuidas",
      "type": "event"
    },
    {
      "anonymous": false,
      "inputs": [
        {
          "indexed": true,
          "internalType": "uint256",
          "name": "loteId",
          "type": "uint256"
        }
      ],
      "name": "LoteCerrado",
      "type": "event"
    },
    {
      "anonymous": false,
      "inputs": [
        {
          "indexed": true,
          "internalType": "uint256",
          "name": "loteId",
          "type": "uint256"
        },
        {
          "indexed": false,
          "internalType": "string",
          "name": "nombre",
          "type": "string"
        },
        {
          "indexed": false,
          "internalType": "uint256",
          "name": "cantidadTokens",
          "type": "uint256"
        },
        {
          "indexed": false,
          "internalType": "uint256",
          "name": "precioPorTokenUSD",
          "type": "uint256"
        }
      ],
      "name": "LoteCreado",
      "type": "event"
    },
    {
      "anonymous": false,
      "inputs": [
        {
          "indexed": true,
          "internalType": "address",
          "name": "previousOwner",
          "type": "address"
        },
        {
          "indexed": true,
          "internalType": "address",
          "name": "newOwner",
          "type": "address"
        }
      ],
      "name": "OwnershipTransferred",
      "type": "event"
    },
    {
      "anonymous": false,
      "inputs": [
        {
          "indexed": true,
          "internalType": "uint256",
          "name": "loteId",
          "type": "uint256"
        },
        {
          "indexed": true,
          "internalType": "address",
          "name": "inversor",
          "type": "address"
        },
        {
          "indexed": false,
          "internalType": "uint256",
          "name": "cantidad",
          "type": "uint256"
        }
      ],
      "name": "TokenComprado",
      "type": "event"
    },
    {
      "inputs": [
        {
          "internalType": "uint256",
          "name": "",
          "type": "uint256"
        },
        {
          "internalType": "address",
          "name": "",
          "type": "address"
        }
      ],
      "name": "inversiones",
      "outputs": [
        {
          "internalType": "uint256",
          "name": "",
          "type": "uint256"
        }
      ],
      "stateMutability": "view",
      "type": "function"
    },
    {
      "inputs": [
        {
          "internalType": "uint256",
          "name": "",
          "type": "uint256"
        },
        {
          "internalType": "uint256",
          "name": "",
          "type": "uint256"
        }
      ],
      "name": "inversores",
      "outputs": [
        {
          "internalType": "address",
          "name": "",
          "type": "address"
        }
      ],
      "stateMutability": "view",
      "type": "function"
    },
    {
      "inputs": [],
      "name": "loteCounter",
      "outputs": [
        {
          "internalType": "uint256",
          "name": "",
          "type": "uint256"
        }
      ],
      "stateMutability": "view",
      "type": "function"
    },
    {
      "inputs": [
        {
          "internalType": "uint256",
          "name": "",
          "type": "uint256"
        }
      ],
      "name": "lotes",
      "outputs": [
        {
          "internalType": "string",
          "name": "nombre",
          "type": "string"
        },
        {
          "internalType": "uint256",
          "name": "cantidadTokens",
          "type": "uint256"
        },
        {
          "internalType": "uint256",
          "name": "tokensVendidos",
          "type": "uint256"
        },
        {
          "internalType": "bool",
          "name": "activo",
          "type": "bool"
        },
        {
          "internalType": "uint256",
          "name": "precioPorTokenUSD",
          "type": "uint256"
        },
        {
          "internalType": "contract LoteToken",
          "name": "token",
          "type": "address"
        }
      ],
      "stateMutability": "view",
      "type": "function"
    },
    {
      "inputs": [],
      "name": "owner",
      "outputs": [
        {
          "internalType": "address",
          "name": "",
          "type": "address"
        }
      ],
      "stateMutability": "view",
      "type": "function"
    },
    {
      "inputs": [],
      "name": "renounceOwnership",
      "outputs": [],
      "stateMutability": "nonpayable",
      "type": "function"
    },
    {
      "inputs": [
        {
          "internalType": "address",
          "name": "newOwner",
          "type": "address"
        }
      ],
      "name": "transferOwnership",
      "outputs": [],
      "stateMutability": "nonpayable",
      "type": "function"
    },
    {
      "inputs": [
        {
          "internalType": "string",
          "name": "nombre",
          "type": "string"
        },
        {
          "internalType": "uint256",
          "name": "cantidadTokens",
          "type": "uint256"
        },
        {
          "internalType": "uint256",
          "name": "precioTotalUSD",
          "type": "uint256"
        }
      ],
      "name": "crearLote",
      "outputs": [],
      "stateMutability": "nonpayable",
      "type": "function"
    },
    {
      "inputs": [
        {
          "internalType": "uint256",
          "name": "loteId",
          "type": "uint256"
        }
      ],
      "name": "comprarTokens",
      "outputs": [],
      "stateMutability": "payable",
      "type": "function"
    },
    {
      "inputs": [
        {
          "internalType": "uint256",
          "name": "loteId",
          "type": "uint256"
        }
      ],
      "name": "verPorcentajeLote",
      "outputs": [
        {
          "internalType": "uint256",
          "name": "",
          "type": "uint256"
        }
      ],
      "stateMutability": "view",
      "type": "function"
    },
    {
      "inputs": [
        {
          "internalType": "uint256",
          "name": "loteId",
          "type": "uint256"
        }
      ],
      "name": "ingresarFondosYDistribuir",
      "outputs": [],
      "stateMutability": "payable",
      "type": "function"
    },
    {
      "inputs": [
        {
          "internalType": "uint256",
          "name": "loteId",
          "type": "uint256"
        }
      ],
      "name": "cerrarYLiquidarLote",
      "outputs": [],
      "stateMutability": "nonpayable",
      "type": "function"
    },
    {
      "inputs": [],
      "name": "getLatestPrice",
      "outputs": [
        {
          "internalType": "int256",
          "name": "",
          "type": "int256"
        }
      ],
      "stateMutability": "view",
      "type": "function"
    }
  ],
  "bytecode": "0x608060405234801561000f575f80fd5b50604051613c67380380613c6783398181016040528101906100319190610241565b61004d6100426100e860201b60201c565b6100ef60201b60201c565b5f6002819055505f81036100a0575f60055f6101000a81548173ffffffffffffffffffffffffffffffffffffffff021916908373ffffffffffffffffffffffffffffffffffffffff1602179055506100e1565b8160055f6101000a81548173ffffffffffffffffffffffffffffffffffffffff021916908373ffffffffffffffffffffffffffffffffffffffff1602179055505b505061027f565b5f33905090565b5f805f9054906101000a900473ffffffffffffffffffffffffffffffffffffffff169050815f806101000a81548173ffffffffffffffffffffffffffffffffffffffff021916908373ffffffffffffffffffffffffffffffffffffffff1602179055508173ffffffffffffffffffffffffffffffffffffffff168173ffffffffffffffffffffffffffffffffffffffff167f8be0079c531659141344cd1fd0a4f28419497f9722a3daafe3b4186f6b6457e060405160405180910390a35050565b5f80fd5b5f73ffffffffffffffffffffffffffffffffffffffff82169050919050565b5f6101dd826101b4565b9050919050565b6101ed816101d3565b81146101f7575f80fd5b50565b5f81519050610208816101e4565b92915050565b5f819050919050565b6102208161020e565b811461022a575f80fd5b50565b5f8151905061023b81610217565b92915050565b5f8060408385031215610257576102566101b0565b5b5f610264858286016101fa565b92505060206102758582860161022d565b9150509250929050565b6139db8061028c5f395ff3fe6080604052600436106100c1575f3560e01c80638e15f4731161007e578063d5c7d36f11610058578063d5c7d36f14610248578063f2fde38b14610272578063fb43d03c1461029a578063ff1019e4146102c2576100c1565b80638e15f473146101c15780638f8cdecf146101eb578063a50ad19d1461022c576100c1565b80631afd64e2146100c55780632f634d33146100e157806345d31828146101095780634ebc289514610145578063715018a6146101815780638da5cb5b14610197575b5f80fd5b6100df60048036038101906100da919061118b565b6102fe565b005b3480156100ec575f80fd5b50610107600480360381019061010291906112f2565b61069c565b005b348015610114575f80fd5b5061012f600480360381019061012a919061118b565b61086d565b60405161013c919061136d565b60405180910390f35b348015610150575f80fd5b5061016b600480360381019061016691906113e0565b6108bf565b604051610178919061136d565b60405180910390f35b34801561018c575f80fd5b506101956108df565b005b3480156101a2575f80fd5b506101ab6108f2565b6040516101b8919061142d565b60405180910390f35b3480156101cc575f80fd5b506101d5610919565b6040516101e2919061145e565b60405180910390f35b3480156101f6575f80fd5b50610211600480360381019061020c919061118b565b610a1b565b6040516102239695949392919061154c565b60405180910390f35b6102466004803603810190610241919061118b565b610b04565b005b348015610253575f80fd5b5061025c610d2b565b604051610269919061136d565b60405180910390f35b34801561027d575f80fd5b50610298600480360381019061029391906115b2565b610d31565b005b3480156102a5575f80fd5b506102c060048036038101906102bb919061118b565b610db3565b005b3480156102cd575f80fd5b506102e860048036038101906102e391906115dd565b610fac565b6040516102f5919061142d565b60405180910390f35b5f60015f8381526020019081526020015f209050806003015f9054906101000a900460ff16610362576040517f08c379a000000000000000000000000000000000000000000000000000000000815260040161035990611665565b60405180910390fd5b5f8073ffffffffffffffffffffffffffffffffffffffff1660055f9054906101000a900473ffffffffffffffffffffffffffffffffffffffff1673ffffffffffffffffffffffffffffffffffffffff16036103c757674563918244f4000090506103d2565b6103cf610919565b90505b5f670de0b6b3a764000082346103e891906116b0565b6103f2919061171e565b90505f836004015482610405919061171e565b90505f81118015610429575083600201548460010154610425919061174e565b8111155b610468576040517f08c379a000000000000000000000000000000000000000000000000000000000815260040161045f906117cb565b60405180910390fd5b836005015f9054906101000a900473ffffffffffffffffffffffffffffffffffffffff1673ffffffffffffffffffffffffffffffffffffffff1663a9059cbb33836040518363ffffffff1660e01b81526004016104c69291906117e9565b6020604051808303815f875af11580156104e2573d5f803e3d5ffd5b505050506040513d601f19601f82011682018060405250810190610506919061183a565b508060035f8781526020019081526020015f205f3373ffffffffffffffffffffffffffffffffffffffff1673ffffffffffffffffffffffffffffffffffffffff1681526020019081526020015f205f8282546105629190611865565b925050819055508060035f8781526020019081526020015f205f3373ffffffffffffffffffffffffffffffffffffffff1673ffffffffffffffffffffffffffffffffffffffff1681526020019081526020015f20540361062c5760045f8681526020019081526020015f2033908060018154018082558091505060019003905f5260205f20015f9091909190916101000a81548173ffffffffffffffffffffffffffffffffffffffff021916908373ffffffffffffffffffffffffffffffffffffffff1602179055505b80846002015f82825461063f9190611865565b925050819055503373ffffffffffffffffffffffffffffffffffffffff16857f7e0f7c5a1678d99c75530e5e372266183dbbb2ba2879f10b8c4d61a4f2f765c68360405161068d919061136d565b60405180910390a35050505050565b6106a4610ff4565b5f82116106e6576040517f08c379a00000000000000000000000000000000000000000000000000000000081526004016106dd906118e2565b60405180910390fd5b5f8111610728576040517f08c379a000000000000000000000000000000000000000000000000000000000815260040161071f90611970565b60405180910390fd5b5f8282610735919061171e565b90505f84846040516107469061113a565b6107519291906119d8565b604051809103905ff08015801561076a573d5f803e3d5ffd5b5090505f60015f60025481526020019081526020015f20905085815f0190816107939190611c0a565b508481600101819055508281600401819055506001816003015f6101000a81548160ff02191690831515021790555081816005015f6101000a81548173ffffffffffffffffffffffffffffffffffffffff021916908373ffffffffffffffffffffffffffffffffffffffff16021790555060025f81548092919061081690611cd9565b9190505550600160025461082a919061174e565b7fc1628c7c38f04134b668f457474a5ead62e8db403d94701747072ad074f0494687878660405161085d93929190611d20565b60405180910390a2505050505050565b5f8060015f8481526020019081526020015f2090505f816001015403610896575f9150506108ba565b8060010154606482600201546108ac91906116b0565b6108b6919061171e565b9150505b919050565b6003602052815f5260405f20602052805f5260405f205f91509150505481565b6108e7610ff4565b6108f05f611072565b565b5f805f9054906101000a900473ffffffffffffffffffffffffffffffffffffffff16905090565b5f8073ffffffffffffffffffffffffffffffffffffffff1660055f9054906101000a900473ffffffffffffffffffffffffffffffffffffffff1673ffffffffffffffffffffffffffffffffffffffff160361097e57674563918244f400009050610a18565b5f60055f9054906101000a900473ffffffffffffffffffffffffffffffffffffffff1673ffffffffffffffffffffffffffffffffffffffff1663feaf968c6040518163ffffffff1660e01b815260040160a060405180830381865afa1580156109e9573d5f803e3d5ffd5b505050506040513d601f19601f82011682018060405250810190610a0d9190611dd9565b505050915050809150505b90565b6001602052805f5260405f205f91509050805f018054610a3a90611a46565b80601f0160208091040260200160405190810160405280929190818152602001828054610a6690611a46565b8015610ab15780601f10610a8857610100808354040283529160200191610ab1565b820191905f5260205f20905b815481529060010190602001808311610a9457829003601f168201915b505050505090806001015490806002015490806003015f9054906101000a900460ff1690806004015490806005015f9054906101000a900473ffffffffffffffffffffffffffffffffffffffff16905086565b610b0c610ff4565b5f60015f8381526020019081526020015f209050806003015f9054906101000a900460ff16610b70576040517f08c379a0000000000000000000000000000000000000000000000000000000008152600401610b6790611665565b60405180910390fd5b5f3411610bb2576040517f08c379a0000000000000000000000000000000000000000000000000000000008152600401610ba990611e9a565b60405180910390fd5b5f3490505f5b60045f8581526020019081526020015f2080549050811015610ced575f60045f8681526020019081526020015f208281548110610bf857610bf7611eb8565b5b905f5260205f20015f9054906101000a900473ffffffffffffffffffffffffffffffffffffffff1690505f60035f8781526020019081526020015f205f8373ffffffffffffffffffffffffffffffffffffffff1673ffffffffffffffffffffffffffffffffffffffff1681526020019081526020015f205490505f811115610cde575f85600201548286610c8c91906116b0565b610c96919061171e565b90508273ffffffffffffffffffffffffffffffffffffffff166108fc8290811502906040515f60405180830381858888f19350505050158015610cdb573d5f803e3d5ffd5b50505b50508080600101915050610bb8565b50827fc6f9946bb4494e109178ff582eb32c0a71349516a5b2f7ff91f1c19967305f4c34604051610d1e919061136d565b60405180910390a2505050565b60025481565b610d39610ff4565b5f73ffffffffffffffffffffffffffffffffffffffff168173ffffffffffffffffffffffffffffffffffffffff1603610da7576040517f08c379a0000000000000000000000000000000000000000000000000000000008152600401610d9e90611f55565b60405180910390fd5b610db081611072565b50565b610dbb610ff4565b5f60015f8381526020019081526020015f209050806003015f9054906101000a900460ff16610e1f576040517f08c379a0000000000000000000000000000000000000000000000000000000008152600401610e1690611fbd565b60405180910390fd5b5f816003015f6101000a81548160ff0219169083151502179055505f816002015490505f5b60045f8581526020019081526020015f2080549050811015610f79575f60045f8681526020019081526020015f208281548110610e8457610e83611eb8565b5b905f5260205f20015f9054906101000a900473ffffffffffffffffffffffffffffffffffffffff1690505f60035f8781526020019081526020015f205f8373ffffffffffffffffffffffffffffffffffffffff1673ffffffffffffffffffffffffffffffffffffffff1681526020019081526020015f205490505f811115610f6a575f85600201548286610f1891906116b0565b610f22919061171e565b90508273ffffffffffffffffffffffffffffffffffffffff166108fc8290811502906040515f60405180830381858888f19350505050158015610f67573d5f803e3d5ffd5b50505b50508080600101915050610e44565b50827f2b1f09aa3947eb7262512991a18a3822f3584aa4f9c794159b538b458accdbbb60405160405180910390a2505050565b6004602052815f5260405f208181548110610fc5575f80fd5b905f5260205f20015f915091509054906101000a900473ffffffffffffffffffffffffffffffffffffffff1681565b610ffc611133565b73ffffffffffffffffffffffffffffffffffffffff1661101a6108f2565b73ffffffffffffffffffffffffffffffffffffffff1614611070576040517f08c379a000000000000000000000000000000000000000000000000000000000815260040161106790612025565b60405180910390fd5b565b5f805f9054906101000a900473ffffffffffffffffffffffffffffffffffffffff169050815f806101000a81548173ffffffffffffffffffffffffffffffffffffffff021916908373ffffffffffffffffffffffffffffffffffffffff1602179055508173ffffffffffffffffffffffffffffffffffffffff168173ffffffffffffffffffffffffffffffffffffffff167f8be0079c531659141344cd1fd0a4f28419497f9722a3daafe3b4186f6b6457e060405160405180910390a35050565b5f33905090565b6119628061204483390190565b5f604051905090565b5f80fd5b5f80fd5b5f819050919050565b61116a81611158565b8114611174575f80fd5b50565b5f8135905061118581611161565b92915050565b5f602082840312156111a05761119f611150565b5b5f6111ad84828501611177565b91505092915050565b5f80fd5b5f80fd5b5f601f19601f8301169050919050565b7f4e487b71000000000000000000000000000000000000000000000000000000005f52604160045260245ffd5b611204826111be565b810181811067ffffffffffffffff82111715611223576112226111ce565b5b80604052505050565b5f611235611147565b905061124182826111fb565b919050565b5f67ffffffffffffffff8211156112605761125f6111ce565b5b611269826111be565b9050602081019050919050565b828183375f83830152505050565b5f61129661129184611246565b61122c565b9050828152602081018484840111156112b2576112b16111ba565b5b6112bd848285611276565b509392505050565b5f82601f8301126112d9576112d86111b6565b5b81356112e9848260208601611284565b91505092915050565b5f805f6060848603121561130957611308611150565b5b5f84013567ffffffffffffffff81111561132657611325611154565b5b611332868287016112c5565b935050602061134386828701611177565b925050604061135486828701611177565b9150509250925092565b61136781611158565b82525050565b5f6020820190506113805f83018461135e565b92915050565b5f73ffffffffffffffffffffffffffffffffffffffff82169050919050565b5f6113af82611386565b9050919050565b6113bf816113a5565b81146113c9575f80fd5b50565b5f813590506113da816113b6565b92915050565b5f80604083850312156113f6576113f5611150565b5b5f61140385828601611177565b9250506020611414858286016113cc565b9150509250929050565b611427816113a5565b82525050565b5f6020820190506114405f83018461141e565b92915050565b5f819050919050565b61145881611446565b82525050565b5f6020820190506114715f83018461144f565b92915050565b5f81519050919050565b5f82825260208201905092915050565b8281835e5f83830152505050565b5f6114a982611477565b6114b38185611481565b93506114c3818560208601611491565b6114cc816111be565b840191505092915050565b5f8115159050919050565b6114eb816114d7565b82525050565b5f819050919050565b5f61151461150f61150a84611386565b6114f1565b611386565b9050919050565b5f611525826114fa565b9050919050565b5f6115368261151b565b9050919050565b6115468161152c565b82525050565b5f60c0820190508181035f830152611564818961149f565b9050611573602083018861135e565b611580604083018761135e565b61158d60608301866114e2565b61159a608083018561135e565b6115a760a083018461153d565b979650505050505050565b5f602082840312156115c7576115c6611150565b5b5f6115d4848285016113cc565b91505092915050565b5f80604083850312156115f3576115f2611150565b5b5f61160085828601611177565b925050602061161185828601611177565b9150509250929050565b7f456c206c6f7465206e6f20657374612061637469766f000000000000000000005f82015250565b5f61164f601683611481565b915061165a8261161b565b602082019050919050565b5f6020820190508181035f83015261167c81611643565b9050919050565b7f4e487b71000000000000000000000000000000000000000000000000000000005f52601160045260245ffd5b5f6116ba82611158565b91506116c583611158565b92508282026116d381611158565b915082820484148315176116ea576116e9611683565b5b5092915050565b7f4e487b71000000000000000000000000000000000000000000000000000000005f52601260045260245ffd5b5f61172882611158565b915061173383611158565b925082611743576117426116f1565b5b828204905092915050565b5f61175882611158565b915061176383611158565b925082820390508181111561177b5761177a611683565b5b92915050565b7f43616e746964616420646520746f6b656e7320696e76616c69646100000000005f82015250565b5f6117b5601b83611481565b91506117c082611781565b602082019050919050565b5f6020820190508181035f8301526117e2816117a9565b9050919050565b5f6040820190506117fc5f83018561141e565b611809602083018461135e565b9392505050565b611819816114d7565b8114611823575f80fd5b50565b5f8151905061183481611810565b92915050565b5f6020828403121561184f5761184e611150565b5b5f61185c84828501611826565b91505092915050565b5f61186f82611158565b915061187a83611158565b925082820190508082111561189257611891611683565b5b92915050565b7f4465626520686162657220616c206d656e6f73203120746f6b656e00000000005f82015250565b5f6118cc601b83611481565b91506118d782611898565b602082019050919050565b5f6020820190508181035f8301526118f9816118c0565b9050919050565b7f456c2070726563696f20746f74616c206465626520736572206d61796f7220715f8201527f7565203000000000000000000000000000000000000000000000000000000000602082015250565b5f61195a602483611481565b915061196582611900565b604082019050919050565b5f6020820190508181035f8301526119878161194e565b9050919050565b7f4c544b4e000000000000000000000000000000000000000000000000000000005f82015250565b5f6119c2600483611481565b91506119cd8261198e565b602082019050919050565b5f6060820190508181035f8301526119f0818561149f565b90508181036020830152611a03816119b6565b9050611a12604083018461135e565b9392505050565b7f4e487b71000000000000000000000000000000000000000000000000000000005f52602260045260245ffd5b5f6002820490506001821680611a5d57607f821691505b602082108103611a7057611a6f611a19565b5b50919050565b5f819050815f5260205f209050919050565b5f6020601f8301049050919050565b5f82821b905092915050565b5f60088302611ad27fffffffffffffffffffffffffffffffffffffffffffffffffffffffffffffffff82611a97565b611adc8683611a97565b95508019841693508086168417925050509392505050565b5f611b0e611b09611b0484611158565b6114f1565b611158565b9050919050565b5f819050919050565b611b2783611af4565b611b3b611b3382611b15565b848454611aa3565b825550505050565b5f90565b611b4f611b43565b611b5a818484611b1e565b505050565b5b81811015611b7d57611b725f82611b47565b600181019050611b60565b5050565b601f821115611bc257611b9381611a76565b611b9c84611a88565b81016020851015611bab578190505b611bbf611bb785611a88565b830182611b5f565b50505b505050565b5f82821c905092915050565b5f611be25f1984600802611bc7565b1980831691505092915050565b5f611bfa8383611bd3565b9150826002028217905092915050565b611c1382611477565b67ffffffffffffffff811115611c2c57611c2b6111ce565b5b611c368254611a46565b611c41828285611b81565b5f60209050601f831160018114611c72575f8415611c60578287015190505b611c6a8582611bef565b865550611cd1565b601f198416611c8086611a76565b5f5b82811015611ca757848901518255600182019150602085019450602081019050611c82565b86831015611cc45784890151611cc0601f891682611bd3565b8355505b6001600288020188555050505b505050505050565b5f611ce382611158565b91507fffffffffffffffffffffffffffffffffffffffffffffffffffffffffffffffff8203611d1557611d14611683565b5b600182019050919050565b5f6060820190508181035f830152611d38818661149f565b9050611d47602083018561135e565b611d54604083018461135e565b949350505050565b5f69ffffffffffffffffffff82169050919050565b611d7a81611d5c565b8114611d84575f80fd5b50565b5f81519050611d9581611d71565b92915050565b611da481611446565b8114611dae575f80fd5b50565b5f81519050611dbf81611d9b565b92915050565b5f81519050611dd381611161565b92915050565b5f805f805f60a08688031215611df257611df1611150565b5b5f611dff88828901611d87565b9550506020611e1088828901611db1565b9450506040611e2188828901611dc5565b9350506060611e3288828901611dc5565b9250506080611e4388828901611d87565b9150509295509295909350565b7f446562657320656e7669617220666f6e646f73000000000000000000000000005f82015250565b5f611e84601383611481565b9150611e8f82611e50565b602082019050919050565b5f6020820190508181035f830152611eb181611e78565b9050919050565b7f4e487b71000000000000000000000000000000000000000000000000000000005f52603260045260245ffd5b7f4f776e61626c653a206e6577206f776e657220697320746865207a65726f20615f8201527f6464726573730000000000000000000000000000000000000000000000000000602082015250565b5f611f3f602683611481565b9150611f4a82611ee5565b604082019050919050565b5f6020820190508181035f830152611f6c81611f33565b9050919050565b7f456c206c6f746520796120667565206365727261646f000000000000000000005f82015250565b5f611fa7601683611481565b9150611fb282611f73565b602082019050919050565b5f6020820190508181035f830152611fd481611f9b565b9050919050565b7f4f776e61626c653a2063616c6c6572206973206e6f7420746865206f776e65725f82015250565b5f61200f602083611481565b915061201a82611fdb565b602082019050919050565b5f6020820190508181035f83015261203c81612003565b905091905056fe608060405234801561000f575f80fd5b5060405161196238038061196283398181016040528101906100319190610351565b8282816003908161004291906105dd565b50806004908161005291906105dd565b505050610065338261006d60201b60201c565b5050506107ac565b5f73ffffffffffffffffffffffffffffffffffffffff168273ffffffffffffffffffffffffffffffffffffffff16036100db576040517f08c379a00000000000000000000000000000000000000000000000000000000081526004016100d290610706565b60405180910390fd5b6100ec5f83836101c760201b60201c565b8060025f8282546100fd9190610751565b92505081905550805f808473ffffffffffffffffffffffffffffffffffffffff1673ffffffffffffffffffffffffffffffffffffffff1681526020019081526020015f205f82825401925050819055508173ffffffffffffffffffffffffffffffffffffffff165f73ffffffffffffffffffffffffffffffffffffffff167fddf252ad1be2c89b69c2b068fc378daa952ba7f163c4a11628f55a4df523b3ef836040516101aa9190610793565b60405180910390a36101c35f83836101cc60201b60201c565b5050565b505050565b505050565b5f604051905090565b5f80fd5b5f80fd5b5f80fd5b5f80fd5b5f601f19601f8301169050919050565b7f4e487b71000000000000000000000000000000000000000000000000000000005f52604160045260245ffd5b610230826101ea565b810181811067ffffffffffffffff8211171561024f5761024e6101fa565b5b80604052505050565b5f6102616101d1565b905061026d8282610227565b919050565b5f67ffffffffffffffff82111561028c5761028b6101fa565b5b610295826101ea565b9050602081019050919050565b8281835e5f83830152505050565b5f6102c26102bd84610272565b610258565b9050828152602081018484840111156102de576102dd6101e6565b5b6102e98482856102a2565b509392505050565b5f82601f830112610305576103046101e2565b5b81516103158482602086016102b0565b91505092915050565b5f819050919050565b6103308161031e565b811461033a575f80fd5b50565b5f8151905061034b81610327565b92915050565b5f805f60608486031215610368576103676101da565b5b5f84015167ffffffffffffffff811115610385576103846101de565b5b610391868287016102f1565b935050602084015167ffffffffffffffff8111156103b2576103b16101de565b5b6103be868287016102f1565b92505060406103cf8682870161033d565b9150509250925092565b5f81519050919050565b7f4e487b71000000000000000000000000000000000000000000000000000000005f52602260045260245ffd5b5f600282049050600182168061042757607f821691505b60208210810361043a576104396103e3565b5b50919050565b5f819050815f5260205f209050919050565b5f6020601f8301049050919050565b5f82821b905092915050565b5f6008830261049c7fffffffffffffffffffffffffffffffffffffffffffffffffffffffffffffffff82610461565b6104a68683610461565b95508019841693508086168417925050509392505050565b5f819050919050565b5f6104e16104dc6104d78461031e565b6104be565b61031e565b9050919050565b5f819050919050565b6104fa836104c7565b61050e610506826104e8565b84845461046d565b825550505050565b5f90565b610522610516565b61052d8184846104f1565b505050565b5b81811015610550576105455f8261051a565b600181019050610533565b5050565b601f8211156105955761056681610440565b61056f84610452565b8101602085101561057e578190505b61059261058a85610452565b830182610532565b50505b505050565b5f82821c905092915050565b5f6105b55f198460080261059a565b1980831691505092915050565b5f6105cd83836105a6565b9150826002028217905092915050565b6105e6826103d9565b67ffffffffffffffff8111156105ff576105fe6101fa565b5b6106098254610410565b610614828285610554565b5f60209050601f831160018114610645575f8415610633578287015190505b61063d85826105c2565b8655506106a4565b601f19841661065386610440565b5f5b8281101561067a57848901518255600182019150602085019450602081019050610655565b868310156106975784890151610693601f8916826105a6565b8355505b6001600288020188555050505b505050505050565b5f82825260208201905092915050565b7f45524332303a206d696e7420746f20746865207a65726f2061646472657373005f82015250565b5f6106f0601f836106ac565b91506106fb826106bc565b602082019050919050565b5f6020820190508181035f83015261071d816106e4565b9050919050565b7f4e487b71000000000000000000000000000000000000000000000000000000005f52601160045260245ffd5b5f61075b8261031e565b91506107668361031e565b925082820190508082111561077e5761077d610724565b5b92915050565b61078d8161031e565b82525050565b5f6020820190506107a65f830184610784565b92915050565b6111a9806107b95f395ff3fe608060405234801561000f575f80fd5b50600436106100a7575f3560e01c8063395093511161006f578063395093511461016557806370a082311461019557806395d89b41146101c5578063a457c2d7146101e3578063a9059cbb14610213578063dd62ed3e14610243576100a7565b806306fdde03146100ab578063095ea7b3146100c957806318160ddd146100f957806323b872dd14610117578063313ce56714610147575b5f80fd5b6100b3610273565b6040516100c09190610ac3565b60405180910390f35b6100e360048036038101906100de9190610b74565b610303565b6040516100f09190610bcc565b60405180910390f35b610101610325565b60405161010e9190610bf4565b60405180910390f35b610131600480360381019061012c9190610c0d565b61032e565b60405161013e9190610bcc565b60405180910390f35b61014f61035c565b60405161015c9190610c78565b60405180910390f35b61017f600480360381019061017a9190610b74565b610364565b60405161018c9190610bcc565b60405180910390f35b6101af60048036038101906101aa9190610c91565b61039a565b6040516101bc9190610bf4565b60405180910390f35b6101cd6103df565b6040516101da9190610ac3565b60405180910390f35b6101fd60048036038101906101f89190610b74565b61046f565b60405161020a9190610bcc565b60405180910390f35b61022d60048036038101906102289190610b74565b6104e4565b60405161023a9190610bcc565b60405180910390f35b61025d60048036038101906102589190610cbc565b610506565b60405161026a9190610bf4565b60405180910390f35b60606003805461028290610d27565b80601f01602080910402602001604051908101604052809291908181526020018280546102ae90610d27565b80156102f95780601f106102d0576101008083540402835291602001916102f9565b820191905f5260205f20905b8154815290600101906020018083116102dc57829003601f168201915b5050505050905090565b5f8061030d610588565b905061031a81858561058f565b600191505092915050565b5f600254905090565b5f80610338610588565b9050610345858285610752565b6103508585856107dd565b60019150509392505050565b5f6012905090565b5f8061036e610588565b905061038f8185856103808589610506565b61038a9190610d84565b61058f565b600191505092915050565b5f805f8373ffffffffffffffffffffffffffffffffffffffff1673ffffffffffffffffffffffffffffffffffffffff1681526020019081526020015f20549050919050565b6060600480546103ee90610d27565b80601f016020809104026020016040519081016040528092919081815260200182805461041a90610d27565b80156104655780601f1061043c57610100808354040283529160200191610465565b820191905f5260205f20905b81548152906001019060200180831161044857829003601f168201915b5050505050905090565b5f80610479610588565b90505f6104868286610506565b9050838110156104cb576040517f08c379a00000000000000000000000000000000000000000000000000000000081526004016104c290610e27565b60405180910390fd5b6104d8828686840361058f565b60019250505092915050565b5f806104ee610588565b90506104fb8185856107dd565b600191505092915050565b5f60015f8473ffffffffffffffffffffffffffffffffffffffff1673ffffffffffffffffffffffffffffffffffffffff1681526020019081526020015f205f8373ffffffffffffffffffffffffffffffffffffffff1673ffffffffffffffffffffffffffffffffffffffff1681526020019081526020015f2054905092915050565b5f33905090565b5f73ffffffffffffffffffffffffffffffffffffffff168373ffffffffffffffffffffffffffffffffffffffff16036105fd576040517f08c379a00000000000000000000000000000000000000000000000000000000081526004016105f490610eb5565b60405180910390fd5b5f73ffffffffffffffffffffffffffffffffffffffff168273ffffffffffffffffffffffffffffffffffffffff160361066b576040517f08c379a000000000000000000000000000000000000000000000000000000000815260040161066290610f43565b60405180910390fd5b8060015f8573ffffffffffffffffffffffffffffffffffffffff1673ffffffffffffffffffffffffffffffffffffffff1681526020019081526020015f205f8473ffffffffffffffffffffffffffffffffffffffff1673ffffffffffffffffffffffffffffffffffffffff1681526020019081526020015f20819055508173ffffffffffffffffffffffffffffffffffffffff168373ffffffffffffffffffffffffffffffffffffffff167f8c5be1e5ebec7d5bd14f71427d1e84f3dd0314c0f7b2291e5b200ac8c7c3b925836040516107459190610bf4565b60405180910390a3505050565b5f61075d8484610506565b90507fffffffffffffffffffffffffffffffffffffffffffffffffffffffffffffffff81146107d757818110156107c9576040517f08c379a00000000000000000000000000000000000000000000000000000000081526004016107c090610fab565b60405180910390fd5b6107d6848484840361058f565b5b50505050565b5f73ffffffffffffffffffffffffffffffffffffffff168373ffffffffffffffffffffffffffffffffffffffff160361084b576040517f08c379a000000000000000000000000000000000000000000000000000000000815260040161084290611039565b60405180910390fd5b5f73ffffffffffffffffffffffffffffffffffffffff168273ffffffffffffffffffffffffffffffffffffffff16036108b9576040517f08c379a00000000000000000000000000000000000000000000000000000000081526004016108b0906110c7565b60405180910390fd5b6108c4838383610a49565b5f805f8573ffffffffffffffffffffffffffffffffffffffff1673ffffffffffffffffffffffffffffffffffffffff1681526020019081526020015f2054905081811015610947576040517f08c379a000000000000000000000000000000000000000000000000000000000815260040161093e90611155565b60405180910390fd5b8181035f808673ffffffffffffffffffffffffffffffffffffffff1673ffffffffffffffffffffffffffffffffffffffff1681526020019081526020015f2081905550815f808573ffffffffffffffffffffffffffffffffffffffff1673ffffffffffffffffffffffffffffffffffffffff1681526020019081526020015f205f82825401925050819055508273ffffffffffffffffffffffffffffffffffffffff168473ffffffffffffffffffffffffffffffffffffffff167fddf252ad1be2c89b69c2b068fc378daa952ba7f163c4a11628f55a4df523b3ef84604051610a309190610bf4565b60405180910390a3610a43848484610a4e565b50505050565b505050565b505050565b5f81519050919050565b5f82825260208201905092915050565b8281835e5f83830152505050565b5f601f19601f8301169050919050565b5f610a9582610a53565b610a9f8185610a5d565b9350610aaf818560208601610a6d565b610ab881610a7b565b840191505092915050565b5f6020820190508181035f830152610adb8184610a8b565b905092915050565b5f80fd5b5f73ffffffffffffffffffffffffffffffffffffffff82169050919050565b5f610b1082610ae7565b9050919050565b610b2081610b06565b8114610b2a575f80fd5b50565b5f81359050610b3b81610b17565b92915050565b5f819050919050565b610b5381610b41565b8114610b5d575f80fd5b50565b5f81359050610b6e81610b4a565b92915050565b5f8060408385031215610b8a57610b89610ae3565b5b5f610b9785828601610b2d565b9250506020610ba885828601610b60565b9150509250929050565b5f8115159050919050565b610bc681610bb2565b82525050565b5f602082019050610bdf5f830184610bbd565b92915050565b610bee81610b41565b82525050565b5f602082019050610c075f830184610be5565b92915050565b5f805f60608486031215610c2457610c23610ae3565b5b5f610c3186828701610b2d565b9350506020610c4286828701610b2d565b9250506040610c5386828701610b60565b9150509250925092565b5f60ff82169050919050565b610c7281610c5d565b82525050565b5f602082019050610c8b5f830184610c69565b92915050565b5f60208284031215610ca657610ca5610ae3565b5b5f610cb384828501610b2d565b91505092915050565b5f8060408385031215610cd257610cd1610ae3565b5b5f610cdf85828601610b2d565b9250506020610cf085828601610b2d565b9150509250929050565b7f4e487b71000000000000000000000000000000000000000000000000000000005f52602260045260245ffd5b5f6002820490506001821680610d3e57607f821691505b602082108103610d5157610d50610cfa565b5b50919050565b7f4e487b71000000000000000000000000000000000000000000000000000000005f52601160045260245ffd5b5f610d8e82610b41565b9150610d9983610b41565b9250828201905080821115610db157610db0610d57565b5b92915050565b7f45524332303a2064656372656173656420616c6c6f77616e63652062656c6f775f8201527f207a65726f000000000000000000000000000000000000000000000000000000602082015250565b5f610e11602583610a5d565b9150610e1c82610db7565b604082019050919050565b5f6020820190508181035f830152610e3e81610e05565b9050919050565b7f45524332303a20617070726f76652066726f6d20746865207a65726f206164645f8201527f7265737300000000000000000000000000000000000000000000000000000000602082015250565b5f610e9f602483610a5d565b9150610eaa82610e45565b604082019050919050565b5f6020820190508181035f830152610ecc81610e93565b9050919050565b7f45524332303a20617070726f766520746f20746865207a65726f2061646472655f8201527f7373000000000000000000000000000000000000000000000000000000000000602082015250565b5f610f2d602283610a5d565b9150610f3882610ed3565b604082019050919050565b5f6020820190508181035f830152610f5a81610f21565b9050919050565b7f45524332303a20696e73756666696369656e7420616c6c6f77616e63650000005f82015250565b5f610f95601d83610a5d565b9150610fa082610f61565b602082019050919050565b5f6020820190508181035f830152610fc281610f89565b9050919050565b7f45524332303a207472616e736665722066726f6d20746865207a65726f2061645f8201527f6472657373000000000000000000000000000000000000000000000000000000602082015250565b5f611023602583610a5d565b915061102e82610fc9565b604082019050919050565b5f6020820190508181035f83015261105081611017565b9050919050565b7f45524332303a207472616e7366657220746f20746865207a65726f20616464725f8201527f6573730000000000000000000000000000000000000000000000000000000000602082015250565b5f6110b1602383610a5d565b91506110bc82611057565b604082019050919050565b5f6020820190508181035f8301526110de816110a5565b9050919050565b7f45524332303a207472616e7366657220616d6f756e74206578636565647320625f8201527f616c616e63650000000000000000000000000000000000000000000000000000602082015250565b5f61113f602683610a5d565b915061114a826110e5565b604082019050919050565b5f6020820190508181035f83015261116c81611133565b905091905056fea2646970667358221220331cc14601ae9d1fb3daf60b4529be45914a434aaf4d6d6942a855d913cd06c164736f6c634300081a0033a26469706673582212202ceb62dd41cc3fcaba7e7693342bd9d4ff7a236e741d1eafad1ca1a099f3a63164736f6c634300081a0033",
  "immutableReferences": {},
  "source": "// SPDX-License-Identifier: MIT\r\npragma solidity ^0.8.0;\r\n\r\nimport \"@openzeppelin/contracts/access/Ownable.sol\";\r\nimport \"@openzeppelin/contracts/token/ERC20/ERC20.sol\";\r\nimport \"@chainlink/contracts/src/v0.8/shared/interfaces/AggregatorV3Interface.sol\";\r\n\r\n// Contrato para el token del lote\r\ncontract LoteToken is ERC20 {\r\n    constructor(string memory nombre, string memory simbolo, uint256 cantidad) \r\n        ERC20(nombre, simbolo) {\r\n        _mint(msg.sender, cantidad); // Minta la cantidad de tokens al creador del contrato\r\n    }\r\n}\r\n\r\ncontract LoteInversion is Ownable {\r\n    struct Lote {\r\n        string nombre;\r\n        uint cantidadTokens;     // Cantidad total de tokens para este lote\r\n        uint tokensVendidos;     // Tokens ya vendidos\r\n        bool activo;             // Si el lote est activo o no\r\n        uint precioPorTokenUSD;  // Precio por token en USD\r\n        LoteToken token;         // Token asociado al lote\r\n    }\r\n\r\n    mapping(uint => Lote) public lotes;\r\n    uint public loteCounter;\r\n\r\n    // Mapeo para almacenar inversiones por lote y por inversor\r\n    mapping(uint => mapping(address => uint)) public inversiones;\r\n    mapping(uint => address[]) public inversores; // Almacena las direcciones de los inversores por lote\r\n\r\n    AggregatorV3Interface internal priceFeed; // Orculo para obtener el precio de MATIC\r\n\r\n    event LoteCreado(uint indexed loteId, string nombre, uint cantidadTokens, uint precioPorTokenUSD);\r\n    event TokenComprado(uint indexed loteId, address indexed inversor, uint cantidad);\r\n    event GananciasDistribuidas(uint indexed loteId, uint montoTotal);\r\n    event LoteCerrado(uint indexed loteId);\r\n\r\n    // Constructor que acepta la direccin del orculo para obtener el precio\r\n    constructor(address _priceFeed, uint number) Ownable() {\r\n        loteCounter = 0;\r\n\r\n        // Si no se pasa una direccin, se establece un valor fijo para el precio de MATIC\r\n        if (number == 0) {\r\n            priceFeed = AggregatorV3Interface(address(0)); // O puedes dejarlo como `0`\r\n        } else {\r\n            priceFeed = AggregatorV3Interface(_priceFeed); // Inicializa el orculo\r\n        }\r\n    }\r\n\r\n    function crearLote(string memory nombre, uint cantidadTokens, uint precioTotalUSD) external onlyOwner {\r\n        require(cantidadTokens > 0, \"Debe haber al menos 1 token\");\r\n        require(precioTotalUSD > 0, \"El precio total debe ser mayor que 0\");\r\n\r\n        // Calcular el precio por token en USD\r\n        uint precioPorTokenUSD = precioTotalUSD / cantidadTokens;\r\n\r\n        // Crear un nuevo token ERC20 especfico para este lote\r\n        LoteToken nuevoToken = new LoteToken(nombre, \"LTKN\", cantidadTokens); // Cambia \"LTKN\" por un smbolo adecuado\r\n\r\n        Lote storage lote = lotes[loteCounter];\r\n        lote.nombre = nombre;\r\n        lote.cantidadTokens = cantidadTokens;\r\n        lote.precioPorTokenUSD = precioPorTokenUSD; // Guardar el precio por token\r\n        lote.activo = true;\r\n        lote.token = nuevoToken;\r\n\r\n        loteCounter++;\r\n\r\n        emit LoteCreado(loteCounter - 1, nombre, cantidadTokens, precioPorTokenUSD);\r\n    }\r\n\r\n    function comprarTokens(uint loteId) external payable {\r\n        Lote storage lote = lotes[loteId];\r\n        require(lote.activo, \"El lote no esta activo\");\r\n\r\n        // Obtener el precio actual de MATIC en USD usando el orculo\r\n        uint precioMATIC;\r\n        if (address(priceFeed) == address(0)) {\r\n            // Si no hay orculo, usar el valor predeterminado\r\n            precioMATIC = 5 * 1e18; // 5 USD en formato de wei\r\n        } else {\r\n            precioMATIC = uint(getLatestPrice());\r\n        }\r\n\r\n        // Calcular cuntos tokens se pueden comprar con el monto enviado\r\n        uint montoEnUSD = (msg.value * precioMATIC) / 1e18; // Monto en USD que se est enviando\r\n        uint cantidadTokens = montoEnUSD / lote.precioPorTokenUSD; // Convertir a tokens segn el precio por token\r\n\r\n        require(cantidadTokens > 0 && cantidadTokens <= lote.cantidadTokens - lote.tokensVendidos, \"Cantidad de tokens invalida\");\r\n\r\n        // Transferir los tokens al comprador\r\n        lote.token.transfer(msg.sender, cantidadTokens);\r\n\r\n        inversiones[loteId][msg.sender] += cantidadTokens;\r\n\r\n        // Verifica si el inversor ya est registrado y si no, agrgalo\r\n        if (inversiones[loteId][msg.sender] == cantidadTokens) {\r\n            inversores[loteId].push(msg.sender);\r\n        }\r\n\r\n        lote.tokensVendidos += cantidadTokens;\r\n\r\n        emit TokenComprado(loteId, msg.sender, cantidadTokens);\r\n    }\r\n\r\n    function verPorcentajeLote(uint loteId) external view returns (uint) {\r\n        Lote storage lote = lotes[loteId];\r\n        if (lote.cantidadTokens == 0) return 0; // Evitar divisin por cero\r\n        return (lote.tokensVendidos * 100) / lote.cantidadTokens; // Porcentaje de tokens vendidos\r\n    }\r\n\r\n    function ingresarFondosYDistribuir(uint loteId) external payable onlyOwner {\r\n        Lote storage lote = lotes[loteId];\r\n        require(lote.activo, \"El lote no esta activo\");\r\n        require(msg.value > 0, \"Debes enviar fondos\");\r\n\r\n        uint montoDistribucion = msg.value;\r\n\r\n        for (uint i = 0; i < inversores[loteId].length; i++) {\r\n            address inversor = inversores[loteId][i]; // Obtn la direccin del inversor desde el mapeo\r\n            uint cantidadTokens = inversiones[loteId][inversor];\r\n            if (cantidadTokens > 0) {\r\n                uint ganancia = (montoDistribucion * cantidadTokens) / lote.tokensVendidos;\r\n                payable(inversor).transfer(ganancia);\r\n            }\r\n        }\r\n\r\n        emit GananciasDistribuidas(loteId, msg.value);\r\n    }\r\n\r\n    function cerrarYLiquidarLote(uint loteId) external onlyOwner {\r\n        Lote storage lote = lotes[loteId];\r\n        require(lote.activo, \"El lote ya fue cerrado\");\r\n        lote.activo = false;\r\n\r\n        uint fondosRestantes = lote.tokensVendidos; // Distribuir segn los tokens vendidos\r\n        for (uint i = 0; i < inversores[loteId].length; i++) {\r\n            address inversor = inversores[loteId][i]; // Obtn la direccin del inversor desde el mapeo\r\n            uint cantidadTokens = inversiones[loteId][inversor];\r\n            if (cantidadTokens > 0) {\r\n                uint liquidacion = (fondosRestantes * cantidadTokens) / lote.tokensVendidos;\r\n                payable(inversor).transfer(liquidacion);\r\n            }\r\n        }\r\n\r\n        emit LoteCerrado(loteId);\r\n    }\r\n\r\n    function getLatestPrice() public view returns (int) {\r\n        if (address(priceFeed) == address(0)) {\r\n            return 5 * 1e18; // Retorna el valor por defecto si no hay orculo\r\n        } else {\r\n            (\r\n                , \r\n                int price,\r\n                ,\r\n                ,\r\n                \r\n            ) = priceFeed.latestRoundData();\r\n            return price; // Devuelve el precio ms reciente\r\n        }\r\n    }\r\n}\r\n",
  "sourcePath": "C:\\Users\\Nicolas\\Documents\\Proyectos\\beca\\AGROBLOCK\\contracts\\LoteInversion.sol",
  "compiler": {
    "name": "solc",
    "version": "0.8.26+commit.8a97fa7a.Emscripten.clang"
  },
  "schemaVersion": "3.4.16",
  "updatedAt": "2024-10-29T19:10:19.147Z",
  "devdoc": {
    "kind": "dev",
    "methods": {
      "owner()": {
        "details": "Returns the address of the current owner."
      },
      "renounceOwnership()": {
        "details": "Leaves the contract without owner. It will not be possible to call `onlyOwner` functions. Can only be called by the current owner. NOTE: Renouncing ownership will leave the contract without an owner, thereby disabling any functionality that is only available to the owner."
      },
      "transferOwnership(address)": {
        "details": "Transfers ownership of the contract to a new account (`newOwner`). Can only be called by the current owner."
      }
    },
    "version": 1
  },
  "userdoc": {
    "kind": "user",
    "methods": {},
    "version": 1
  }
}