{
  "contractName": "SimpleStamper",
  "abi": [
    {
      "inputs": [],
      "stateMutability": "nonpayable",
      "type": "constructor"
    },
    {
      "anonymous": false,
      "inputs": [
        {
          "indexed": true,
          "internalType": "bytes32",
          "name": "object",
          "type": "bytes32"
        },
        {
          "indexed": false,
          "internalType": "uint256",
          "name": "blockNo",
          "type": "uint256"
        },
        {
          "indexed": false,
          "internalType": "uint256",
          "name": "timestamp",
          "type": "uint256"
        }
      ],
      "name": "Stamped",
      "type": "event"
    },
    {
      "inputs": [
        {
          "internalType": "bytes32[]",
          "name": "objectList",
          "type": "bytes32[]"
        }
      ],
      "name": "put",
      "outputs": [],
      "stateMutability": "nonpayable",
      "type": "function"
    },
    {
      "inputs": [
        {
          "internalType": "bytes32",
          "name": "object",
          "type": "bytes32"
        }
      ],
      "name": "isStamped",
      "outputs": [
        {
          "internalType": "bool",
          "name": "",
          "type": "bool"
        }
      ],
      "stateMutability": "view",
      "type": "function",
      "constant": true
    },
    {
      "inputs": [
        {
          "internalType": "uint256",
          "name": "pos",
          "type": "uint256"
        }
      ],
      "name": "getStamplistPos",
      "outputs": [
        {
          "internalType": "bytes32",
          "name": "",
          "type": "bytes32"
        },
        {
          "internalType": "uint256",
          "name": "",
          "type": "uint256"
        },
        {
          "internalType": "uint256",
          "name": "",
          "type": "uint256"
        }
      ],
      "stateMutability": "view",
      "type": "function",
      "constant": true
    },
    {
      "inputs": [
        {
          "internalType": "bytes32",
          "name": "object",
          "type": "bytes32"
        }
      ],
      "name": "getTimestampByHash",
      "outputs": [
        {
          "internalType": "uint256",
          "name": "",
          "type": "uint256"
        }
      ],
      "stateMutability": "view",
      "type": "function",
      "constant": true
    },
    {
      "inputs": [
        {
          "internalType": "uint256",
          "name": "pos",
          "type": "uint256"
        }
      ],
      "name": "getTimestampByPos",
      "outputs": [
        {
          "internalType": "uint256",
          "name": "",
          "type": "uint256"
        }
      ],
      "stateMutability": "view",
      "type": "function",
      "constant": true
    }
  ],
  "bytecode": "0x6080604052348015600e575f80fd5b505f60405180606001604052805f801b815260200143815260200142815250908060018154018082558091505060019003905f5260205f2090600302015f909190919091505f820151815f0155602082015181600101556040820151816002015550506108f28061007e5f395ff3fe608060405234801561000f575f80fd5b5060043610610055575f3560e01c80633a00faae146100595780633ecb0c66146100755780639d192428146100a5578063bd33dca8146100d7578063fc7529e514610107575b5f80fd5b610073600480360381019061006e91906105b9565b610137565b005b61008f600480360381019061008a9190610633565b610256565b60405161009c919061066d565b60405180910390f35b6100bf60048036038101906100ba9190610633565b6102c7565b6040516100ce93929190610695565b60405180910390f35b6100f160048036038101906100ec91906106ca565b61034e565b6040516100fe919061070f565b60405180910390f35b610121600480360381019061011c91906106ca565b61036d565b60405161012e919061066d565b60405180910390f35b5f5b8151811015610252575f82828151811061015657610155610728565b5b602002602001015190505f604051806060016040528083815260200143815260200142815250908060018154018082558091505060019003905f5260205f2090600302015f909190919091505f820151815f0155602082015181600101556040820151816002015550505f60015f805490506101d29190610782565b905060015f8381526020019081526020015f2081908060018154018082558091505060019003905f5260205f20015f9091909190915055817f7abe1c4db08882ddfe7a870dbfaf8d11d0eace7fab99c48b1f999fc5692019f2434260405161023b9291906107b5565b60405180910390a250508080600101915050610139565b5050565b5f8080549050821061029d576040517f08c379a000000000000000000000000000000000000000000000000000000000815260040161029490610836565b60405180910390fd5b5f82815481106102b0576102af610728565b5b905f5260205f209060030201600201549050919050565b5f805f80805490508410610310576040517f08c379a000000000000000000000000000000000000000000000000000000000815260040161030790610836565b60405180910390fd5b5f80858154811061032457610323610728565b5b905f5260205f2090600302019050805f015481600101548260020154935093509350509193909250565b5f8060015f8481526020019081526020015f2080549050119050919050565b5f6103778261034e565b6103b6576040517f08c379a00000000000000000000000000000000000000000000000000000000081526004016103ad9061089e565b60405180910390fd5b5f60015f8481526020019081526020015f2090505f81600183805490506103dd9190610782565b815481106103ee576103ed610728565b5b905f5260205f20015490505f818154811061040c5761040b610728565b5b905f5260205f2090600302016002015492505050919050565b5f604051905090565b5f80fd5b5f80fd5b5f80fd5b5f601f19601f8301169050919050565b7f4e487b71000000000000000000000000000000000000000000000000000000005f52604160045260245ffd5b6104808261043a565b810181811067ffffffffffffffff8211171561049f5761049e61044a565b5b80604052505050565b5f6104b1610425565b90506104bd8282610477565b919050565b5f67ffffffffffffffff8211156104dc576104db61044a565b5b602082029050602081019050919050565b5f80fd5b5f819050919050565b610503816104f1565b811461050d575f80fd5b50565b5f8135905061051e816104fa565b92915050565b5f610536610531846104c2565b6104a8565b90508083825260208201905060208402830185811115610559576105586104ed565b5b835b81811015610582578061056e8882610510565b84526020840193505060208101905061055b565b5050509392505050565b5f82601f8301126105a05761059f610436565b5b81356105b0848260208601610524565b91505092915050565b5f602082840312156105ce576105cd61042e565b5b5f82013567ffffffffffffffff8111156105eb576105ea610432565b5b6105f78482850161058c565b91505092915050565b5f819050919050565b61061281610600565b811461061c575f80fd5b50565b5f8135905061062d81610609565b92915050565b5f602082840312156106485761064761042e565b5b5f6106558482850161061f565b91505092915050565b61066781610600565b82525050565b5f6020820190506106805f83018461065e565b92915050565b61068f816104f1565b82525050565b5f6060820190506106a85f830186610686565b6106b5602083018561065e565b6106c2604083018461065e565b949350505050565b5f602082840312156106df576106de61042e565b5b5f6106ec84828501610510565b91505092915050565b5f8115159050919050565b610709816106f5565b82525050565b5f6020820190506107225f830184610700565b92915050565b7f4e487b71000000000000000000000000000000000000000000000000000000005f52603260045260245ffd5b7f4e487b71000000000000000000000000000000000000000000000000000000005f52601160045260245ffd5b5f61078c82610600565b915061079783610600565b92508282039050818111156107af576107ae610755565b5b92915050565b5f6040820190506107c85f83018561065e565b6107d5602083018461065e565b9392505050565b5f82825260208201905092915050565b7f496e646578206f7574206f6620626f756e6473000000000000000000000000005f82015250565b5f6108206013836107dc565b915061082b826107ec565b602082019050919050565b5f6020820190508181035f83015261084d81610814565b9050919050565b7f4f626a656374206e6f74207374616d70656400000000000000000000000000005f82015250565b5f6108886012836107dc565b915061089382610854565b602082019050919050565b5f6020820190508181035f8301526108b58161087c565b905091905056fea264697066735822122086332c633bf1aeb0ab547ca5a4a10ebecf30880ce1603098feb5ad69f2dadd5c64736f6c634300081a0033",
  "immutableReferences": {},
  "source": "// SPDX-License-Identifier: MIT\r\npragma solidity ^0.8.26;\r\n\r\ncontract SimpleStamper {\r\n    struct Stamp {\r\n        bytes32 object; // guarda el hash por temas de solidity se le tiene que agregar 0x\r\n        uint256 blockNo; // guarda el numero del bloque\r\n        uint256 timestamp; // guarda el horario del bloque\r\n    }\r\n\r\n    Stamp[] private stampList;\r\n    mapping(bytes32 => uint256[]) private hashObjects;\r\n\r\n    event Stamped(\r\n        bytes32 indexed object,\r\n        uint256 blockNo,\r\n        uint256 timestamp\r\n    );\r\n\r\n    constructor() {\r\n        stampList.push(Stamp(0, block.number, block.timestamp));\r\n    }\r\n\r\n    // Stampear una lista de hashes recibidos como array\r\n    function put(bytes32[] memory objectList) public {\r\n        for (uint256 i = 0; i < objectList.length; i++) {\r\n            bytes32 object = objectList[i];\r\n            stampList.push(Stamp(object, block.number, block.timestamp));\r\n            uint256 newObjectIndex = stampList.length - 1;\r\n            hashObjects[object].push(newObjectIndex);\r\n\r\n            emit Stamped(object, block.number, block.timestamp);\r\n        }\r\n    }\r\n\r\n    // Devuelve true si el objeto está sellado, false en caso contrario\r\n    function isStamped(bytes32 object) public view returns (bool) {\r\n        return hashObjects[object].length > 0;\r\n    }\r\n\r\n    // Devuelve un sello completo (hash, block Num, timestamp) de la lista\r\n    function getStamplistPos(uint256 pos) public view returns (bytes32, uint256, uint256) {\r\n        require(pos < stampList.length, \"Index out of bounds\");\r\n        Stamp storage stamp = stampList[pos];\r\n        return (stamp.object, stamp.blockNo, stamp.timestamp);\r\n    }\r\n\r\n    // Devuelve la marca de tiempo del bloque en el que se guardó un objeto usando su hash\r\n    function getTimestampByHash(bytes32 object) public view returns (uint256) {\r\n        require(isStamped(object), \"Object not stamped\");\r\n        uint256[] storage indices = hashObjects[object];\r\n        uint256 latestIndex = indices[indices.length - 1];\r\n        return stampList[latestIndex].timestamp;\r\n    }\r\n\r\n    // Devuelve la marca de tiempo del bloque en el que se guardó el sello en una posición específica\r\n    function getTimestampByPos(uint256 pos) public view returns (uint256) {\r\n        require(pos < stampList.length, \"Index out of bounds\");\r\n        return stampList[pos].timestamp;\r\n    }\r\n}\r\n",
  "sourcePath": "C:\\Users\\nicol\\Documents\\Proyectos\\beca\\Back-Contrato\\contracts\\SimpleStamper.sol",
  "compiler": {
    "name": "solc",
    "version": "0.8.26+commit.8a97fa7a.Emscripten.clang"
  },
  "schemaVersion": "3.4.16",
  "updatedAt": "2024-08-22T17:34:43.198Z",
  "networkType": "ethereum",
  "devdoc": {
    "kind": "dev",
    "methods": {},
    "version": 1
  },
  "userdoc": {
    "kind": "user",
    "methods": {},
    "version": 1
  }
}